S00C00006C6162362E73726563B3
S214400000A8E9402011374000C1374000C1374000C2
S214400010C1374000C1374000C137400000000000F3
S214400020000000000000000000000000B13C40005E
S214400030C137400000000000993E40000D3F4000A0
S214400040C1374000C1374000C1374000C13740008B
S214400050C1374000C1374000C1374000C13740007B
S214400060C1374000000000002D28400045284000D1
S2144000705D284000C1374000C1374000C1374000CE
S214400080752840008D284000C1374000C1374000E9
S214400090C1374000C1374000C1374000C13740003B
S2144000A0C1374000C1374000C1374000C13740002B
S2144000B0C137400061224000C1374000C137400090
S2144000C0C1374000C1374000C1374000C13740000B
S2144000D0C1374000C1374000C1374000C1374000FB
S2144000E079224000C1374000C1374000C137400048
S2144000F0C1374000C1374000C1374000C1374000DB
S214400100C1374000C1374000C1374000C1374000CA
S214400110C137400000000000000000000000000062
S214400120C1374000C1374000C1374000C1374000AA
S214400130C1374000C1374000C1374000C13740009A
S214400140C1374000C1374000C1374000C13740008A
S214400150C137400000000000000000000000000022
S214400160000000000000000010B5054C237833B9AD
S214400170044B13B10448AFF300800123237010BD35
S214400180C8094020000000007CE040000C4B43B112
S2144001900C480D4910B5AFF300800C48036823B9EE
S2144001A010BD0A48036833B97047094B002BF7D097
S2144001B0BDE810401847064B002BF5D0184700BF47
S2144001C0000000007CE04000CC0940207CE040007D
S2144001D00000000080B489B000AF78607B68FB61A7
S2144001E0FB69BB61BB697B617B695B093B613A69C3
S2144001F00B4B13445B02DA6BFB69FB60FB6803F056
S2144002001F03012101FA03F31340002B14BF0123FF
S2144002100023DBB218462437BD465DF8047B7047A2
S2144002200707200080B485B000AF78600023BB731A
S2144002300023FB730EE07B685968FA7B13465B002D
S21440024013445B000B445A79BB7B1344BB73FB7B64
S2144002500133FB737B681B689B79FA7B9A42EAD32F
S214400260BB7B18461437BD465DF8047B70470000DC
S21440027080B588B000AF78600720154B9847034696
S2144002801A467B681A6007F10C0300221A605A600F
S2144002909A60DA601A6102233B617B681B687B6167
S2144002A00723BB617B681B7B3B777B689B6807F1BA
S2144002B00C0211461846074B98470346002B02D0BF
S2144002C04FF0FF3300E0002318462037BD4680BD80
S2144002D0557A40006131400080B588B000AF786004
S2144002E07B681B689B791A4613465B0013445B0089
S2144002F018461A4B984703461A467B685A6007F1D9
S2144003000C0300221A605A609A60DA601A6107236A
S2144003103B7302233B617B685B687B617B681B6841
S2144003209B791A4613465B0013445B00BB617B68AF
S2144003301B7B3B777B689B6807F10C02114618468F
S214400340074B98470346002B02D04FF0FF3300E0A0
S214400350002318462037BD4680BD00BF557A400072
S2144003606131400080B584B000AF786078680D4B4E
S21440037098470346FB73FB7B002B02D097F90F3060
S2144003800BE07868084B98470346FB73FB7B002BD3
S21440039002D097F90F3000E0002318461037BD46CC
S2144003A080BD00BF71024000D902400080B584B0D5
S2144003B000AF786001233B737868334B9847034619
S2144003C0FB72FB7A5B001846304B984703461A464A
S2144003D07B685A610023FB734AE00023BB7338E016
S2144003E07B685968FA7B13465B0013445B000B44FA
S2144003F05B79002B2AD000237B731BE07B685A690D
S2144004003B7B5B00D1187B685868FA7B13465B00E1
S21440041013445B0003441B780B707B685A693B7B34
S2144004205B001344BA7B5A703B7B01333B737B7B48
S21440043001337B737B685968FA7B13465B00134431
S2144004405B000B445B797A7B9A42D7D3BB7B013304
S214400450BB737B685968FA7B13465B0013445B00AA
S2144004600B441B79BA7B9A42BAD9FB7B0133FB73A8
S2144004707B681B689B79FA7B9A42AED3002318466A
S2144004801037BD4680BD00BF25024000557A40006B
S21440049080B485B000AF78600B46FB701346BB70E7
S2144004A0BB789BB21B029AB2FB789BB213437B810C
S2144004B07B685A007B895340FB60FB6803F080737F
S2144004C0002B04D0054B1B68FA685340FB60FB6862
S2144004D018461437BD465DF8047B7047F8DB40008D
S2144004E080B588B000AF786039600023FB617B68D8
S2144004F01B687B617B685B683B617B681B689B799C
S2144005009BB21A46520013445B009BB20733FB81F2
S21440051000237B8310E07B8B7A69134419787B8BAE
S21440052001337A6913441B781A46F869204B98477A
S214400530F8617B8B02337B837B8B052BEBD97B6906
S214400540063319783B691B781A46F869184B984762
S214400550F86101237B8310E07B8B3A69134419785A
S2144005607B8B01333A6913441B781A46F869104B63
S2144005709847F8617B8B02337B837A8BFB89083BF9
S2144005809A42E9DBFB89083B3A6913441B78002210
S2144005901946F869064B9847F861FB6923F07F4295
S2144005A03B681A60002318462037BD4680BD00BF12
S2144005B09104400080B58AB000AF78607B681B68C5
S2144005C09B799BB21A46520013445B009BB207339A
S2144005D0FB8407F10C0300221A605A609A60DA60C6
S2144005E01A61FB8CDBB23B73FB8C1B0A9BB2DBB203
S2144005F07B7302233B6107F120037B610323BB61CE
S2144006007B681B7B3B777B689B6807F10C02114637
S21440061018460B4B98470346002B02D04FF0FF334B
S21440062009E097F822301B0497F821201202134362
S21440063097F82020134318462837BD4680BD00BF94
S2144006406131400080B584B000AF786007F10803A0
S21440065019467868084B98477868084B9847F8607A
S214400660BA68FB689A4202D06FF0030300E00023AA
S21440067018461037BD4680BDE1044000B505400031
S21440068080B485B000AF78600B467B800023FB7358
S2144006901CE07B685968FA7B13465B0013445B009A
S2144006A00B44B3F801309BB27A889A420BD17B68F0
S2144006B05968FA7B13465B0013445B000B44DB78B7
S2144006C00133DBB209E0FB7B0133FB737B681B68BD
S2144006D09B79FA7B9A42DCD3002318461437BD46F2
S2144006E05DF8047B7047000080B584B000AF78604A
S2144006F00B46FB707868104B98470346BB73002345
S214400700FB730EE07B685A69FB7B5B0013441B78E7
S214400710FA789A4202D197F90F3008E0FB7B013312
S214400720FB73FA7BBB7B9A42ECD34FF0FF33184601
S2144007301037BD4680BD00BF2502400080B485B05E
S21440074000AF78600023FB7317E07B685968FA7B3C
S21440075013465B0013445B0019447B685868FA7B79
S21440076013465B0013445B000344B3F801309BB26E
S214400770A1F80130FB7B0133FB737B681B689B79D8
S214400780FA7B9A42E1D300BF1437BD465DF8047B3E
S2144007907047000080B586B000AFF860B9603B6037
S2144007A01346FB71FB68BA689A60FB68FA791A735D
S2144007B0FB683A689A61FB6800221A61F8681E4B2B
S2144007C098470346FB7597F91730002B02D097F9E8
S2144007D017302CE0F868194B98470346FB7597F995
S2144007E01730002B02D097F9173020E0F868144BEA
S2144007F09847F868134B98470346FB7597F91730A8
S214400800002B02D097F9173011E00921F8680E4BFB
S21440081098470346FB7597F91730B3F1FF3F02D16F
S2144008206FF0030303E0FB68FA7D1A77002318464F
S2144008301837BD4680BD00BF6503400045064000F2
S2144008403D074000AD034000E906400080B485B057
S21440085000AF78600B46FB701346BB700023FB73FB
S2144008601AE07B685968FA7B13465B0013445B00CA
S2144008700B441B78FA789A420BD17B685968FA7B0E
S21440088013465B0013445B000B44B3F801309BB245
S21440089009E0FB7B0133FB737B681B689B79FA7B23
S2144008A09A42DED3002318461437BD465DF8047BD3
S2144008B07047000080B58AB000AFF8600B467A609B
S2144008C07B8107F1140300221A605A609A60DA604E
S2144008D01A617B89DBB23B757B891B0A9BB2DBB214
S2144008E07B750223BB617B68FB617B891946F86890
S2144008F00D4B984703463B62FB681B7B87F82430CA
S214400900FB689B6807F1140211461846074B984748
S2144009100346002B02D04FF0FF3300E0002318467A
S2144009202837BD4680BD00BF8106400049324000A2
S21440093080B588B000AF78600B467B8013467B70EE
S21440094007F10C0300221A605A609A60DA601A6156
S2144009507B88DBB23B737B881B0A9BB2DBB27B7324
S21440096002233B617B1C7B610123BB617B681B7B55
S2144009703B777B689B6807F10C0211461846064B8E
S21440098098470346002B02D04FF0FF3300E0002389
S21440099018462037BD4680BD4932400080B582B0FB
S2144009A000AF78607B689B691846074B98470346BC
S2144009B083F00103DBB2002B01D0012300E00023CB
S2144009C018460837BD4680BDD501400080B588B082
S2144009D000AF78603960002205217868174B984749
S2144009E00346FB8307F1080300221A605A609A60A8
S2144009F0DA601A61FB8BDBB23B72FB8B1B0A9BB245
S214400A00DBB27B720223FB603B683B6109237B6160
S214400A107B681B7B3B767B689B6807F10802114628
S214400A201846074B98470346002B02D04FF0FF333B
S214400A3000E0002318462037BD4680BD4D084000E4
S214400A406131400080B586B000AF7860396042E0E2
S214400A5007F10C0319467868254B98470346FB7503
S214400A60FB7D002B02D097F917303CE007F10C03D2
S214400A70194678681F4B98470346BB75BB7D092BC4
S214400A8029D13A7B7B6893F91C30DBB2D31ADAB2B1
S214400A903B681A707A7B3B685A70BB7B1B011AB264
S214400AA03B7C1B09DBB21BB213431BB29AB23B68BA
S214400AB05A80FB7B1B011AB23B7C1BB203F00F0330
S214400AC01BB213431BB29AB23B689A807A7C3B684F
S214400AD09A71002307E07868074B98470346002B37
S214400AE0B6D16FF0030318461837BD4680BD00BF29
S214400AF0CD094000FD0A40009D09400080B483B007
S214400B0000AF786039607B685A693B681B785B0049
S214400B1013441B7818460C37BD465DF8047B704777
S214400B2080B582B000AF78607B68072B31D801A2D1
S214400B3052F823F0910B4000550B40005D0B4000EF
S214400B40650B40006D0B4000750B40007D0B400070
S214400B50870B40000020114B98471AE001200F4BAE
S214400B60984716E000200E4B984712E010200C4B9A
S214400B7098470EE020200A4B98470AE03E21002086
S214400B80084B984705E03E210120064B984700E079
S214400B9000BF00BF0837BD4680BD00BFA529400046
S214400BA0112A4000812A400080B582B000AF7860AC
S214400BB07B68072B26D801A252F823F0DD0B4000B5
S214400BC0E10B4000E10B4000F30B4000F30B40000C
S214400BD0F30B4000F30B4000F30B4000012312E000
S214400BE00B4B98470346002B14BF01230023DBB270
S214400BF009E0084B98470346002B14BF0123002307
S214400C00DBB200E0002318460837BD4680BD00BF73
S214400C10DD294000F92A400080B483B000AF7860F8
S214400C207B68072B25D801A252F823F04D0C4000D4
S214400C30530C4000590C40005F0C4000630C4000D1
S214400C40670C40006B0C40006F0C40004FF4FA43BA
S214400C5010E04FF400430DE04FF400430AE0084B29
S214400C6008E0084B06E0084B04E0074B02E0064B62
S214400C7000E0002318460C37BD465DF8047B7047FD
S214400C8000093D0000127A00001BB70080B582B014
S214400C9000AF0346FB7100BFFB791846054B9847EB
S214400CA0034683F00103DBB2002BF5D100BF0837C3
S214400CB0BD4680BDA90B400080B586B000AFF86049
S214400CC07A603B600B46FB727B68002B07D13B6823
S214400CD0002B04D1FB684FF470021A6019E0FB7ACF
S214400CE018460E4B984702467B68B2FBF3F37B618F
S214400CF07B693A6802FB03F37B613B68013B1A045D
S214400D00074B13407A68D2B2134343F47C52FB68D5
S214400D101A6000BF1837BD4680BD00BF190C4000A2
S214400D200000FF0780B582B000AF786039603B684E
S214400D30002B08D1094B9847094A7B681B6843F04B
S214400D400053936205E0064A7B681B6843F4803391
S214400D50D36100BF0837BD4680BD00BF152B40009D
S214400D6000060E4080B582B000AF78607B68002BEE
S214400D7003D1054B9847034602E0044B9847034689
S214400D8018460837BD4680BD312B40004D2B4000ED
S214400D9080B582B000AF0346FB71FB79033B042B62
S214400DA008D8FB791846064B9847FB791846054BFA
S214400DB0984700E000BF00BF0837BD4680BD00BF73
S214400DC0210B40008D0C400080B582B000AF7860AB
S214400DD000BF7868044B98470346002BF9D00023A1
S214400DE018460837BD4680BD650D400080B500AF4B
S214400DF00620054B9847024613469B0013449A002C
S214400E001344184680BD00BF190C400080B500AFA3
S214400E10024B98470346184680BD00BFED0D400084
S214400E2090B583B000AF1348134B98470620134B3A
S214400E309847381D192301220621114CA0473B1D17
S214400E40002118460F4B984700200F4B984702202A
S214400E500E4B984700200E4B98470E4B98470E4B2C
S214400E60984703461846044B984700BF0C37BD4684
S214400E7090BD00BF000E270731394000910D40005D
S214400E80B90C4000250D4000C90D4000A528400083
S214400E9021294000C93740000D0E400080B582B081
S214400EA000AF78600B46FB707B68364A93420AD1A7
S214400EB000BFFB7819467868334B98470346002BAB
S214400EC0F7D101235AE07B68304A93420AD100BFEB
S214400ED0FB78194678682C4B98470346002BF7D189
S214400EE001234BE07B682A4A93420AD100BFFB7835
S214400EF019467868244B98470346002BF7D10123C0
S214400F003CE07B68234A93420AD100BFFB781946EF
S214400F1078681D4B98470346002BF7D101232DE0F8
S214400F207B681D4A93420AD100BFFB781946786811
S214400F301A4B98470346002BF7D101231EE07B68E7
S214400F40174A93420AD100BFFB7819467868134B7C
S214400F5098470346002BF7D101230FE07B68114AE0
S214400F6093420AD100BFFB78194678680B4B9847E6
S214400F700346002BF7D1012300E00023184608372C
S214400F80BD4680BD00080E409B334000000A0E4020
S214400F90001A0E40001C0E40004002400136400041
S214400FA00080024000C0024080B584B000AFF860C8
S214400FB0B9607A600BE0BB681B781946F868084B46
S214400FC098477B68013B7B60BB680133BB607B68AE
S214400FD0002BF0D1002318461037BD4680BD00BF19
S214400FE09D0E400080B483B000AF78607B68072BCE
S214400FF025D801A252F823F0191040001F104000D7
S214401000251040002B1040002F10400033104000A9
S214401010371040003B1040004FF4FA4310E04FF4C6
S21440102000430DE04FF400430AE0084B08E0084B4D
S21440103006E0084B04E0074B02E0064B00E00023C6
S21440104018460C37BD465DF8047B704700093D00E6
S21440105000127A00001BB70080B500AF0620054B93
S2144010609847024613469B0013449A00134418467A
S21440107080BD00BFE50F400080B500AF024B9847EB
S21440108003465B08184680BD5910400080B483B0C4
S21440109000AF78607B6880221A6000BF0C37BD4680
S2144010A05DF8047B704780B483B000AF78607B689F
S2144010B05B6843F001027B685A6000BF0C37BD4650
S2144010C05DF8047B704780B483B000AF78607B687F
S2144010D05B6823F002027B685A6000BF0C37BD464F
S2144010E05DF8047B704780B483B000AF78607B685F
S2144010F05B6823F004027B685A6000BF0C37BD462D
S2144011005DF8047B704780B483B000AF78607B683E
S2144011105B6803F00403002B01D0012300E00023AA
S21440112018460C37BD465DF8047B704780B483B0E4
S21440113000AF78607B685B6843F010027B685A605B
S21440114000BF0C37BD465DF8047B704780B483B063
S21440115000AF78607B685B6823F080027B685A60EB
S21440116000BF0C37BD465DF8047B704780B483B043
S21440117000AF78600B467B807A887B68DA6000BF79
S2144011800C37BD465DF8047B704780B483B000AF33
S21440119078607B689B689BB218460C37BD465DF806
S2144011A0047B704780B483B000AF78607B681B696F
S2144011B003F00203002B01D0012300E00023184671
S2144011C00C37BD465DF8047B704780B483B000AFF3
S2144011D078607B681A6940F20123134040F201228E
S2144011E0934201D1012300E0002318460C37BD4648
S2144011F05DF8047B7047000080B582B000AF786031
S2144012000B46FB70FB789BB219467868024B9847B2
S21440121000BF0837BD4680BD6D11400080B582B026
S21440122000AF786039607868044B98470346DAB276
S2144012303B681A7000BF0837BD4680BD8B11400022
S21440124080B582B000AF78607868104B9847786871
S2144012500F4B984778680F4B984778680E4B9847DF
S21440126078680E4B9847002178680D4B9847786809
S2144012700C4B984778680C4B9847002178680B4B86
S214401280984700BF0837BD4680BD00BFE92B4000E9
S2144012908D104000A71040002D1140004D11400019
S2144012A0252C4000C7104000E7104000592C400055
S2144012B090B587B000AFF860B9603B601346FB71ED
S2144012C0204B98470346194638681F4B98470346B5
S2144012D0FB82BB68196800230022F8681B4CA047B5
S2144012E0BB681B6808221946F868194B9847BB68C4
S2144012F01B68FA8AD2B21946F868164B9847BB68FC
S2144013001B6808221946F868134B9847BB6819684B
S214401310FB795B08DBB21A46F868104B9847BB6807
S2144013201968FB7903F00103002B0CBF012300234F
S214401330DBB21A46F8680A4B984700BF1C37BD46D2
S21440134090BD00BF79104000992E4000332F4000DA
S2144013504F2E4000D52E4000A92D4000092D4000BC
S214401360592D400080B582B000AF7860396078680B
S214401370104B98470346002B0AD03B681B680F2B40
S21440138014D83B681B68194678680B4B98470DE0A5
S2144013903B681B68032B09D83B681B68012202FA8E
S2144013A003F3DB4319467868034B984700BF08377A
S2144013B0BD4680BD07114000252C400080B588B052
S2144013C000AFF860B9607A6043F69823FB6100236B
S2144013D0BB6121E043F69823FB6107E0FB695A1E98
S2144013E0FA61002B02D16FF0020319E0F8680E4B49
S2144013F098470346002BF1D0BA68BB6913441B7864
S214401400FB75FB7D1946F868084B9847BB69013366
S214401410BB617B68013B7B607B68002BDAD1002395
S21440142018462037BD4680BDA5114000F911400042
S21440143080B588B000AFF860B9607A6043F698230C
S214401440FB610023BB6138E043F69823FB6107E06D
S214401450FB695A1EFA61002B02D16FF0020330E09E
S214401460F8681A4B98470346002BF1D0FF21F868DE
S214401470174B984743F69823FB6107E0FB695A1ED3
S214401480FA61002B02D16FF002031AE0F868114BA4
S21440149098470346002BF1D007F117031946F86822
S2144014A00D4B9847BA68BB691344FA7D1A70BB69FE
S2144014B00133BB617B68013B7B607B68002BC3D1FB
S2144014C0002318462037BD4680BD00BFA51140000A
S2144014D0F9114000CB1140001D12400080B586B087
S2144014E000AFF860B9607A6000237B61FB68002B30
S2144014F012D04FF0FF3313E00B4B1B680B4A1268B9
S214401500B96810469847BB680133BB607B690133B6
S2144015107B617B68013B7B607B68002BECDC7B69F6
S21440152018461837BD4680BD9CC84020A4C84020F9
S21440153080B586B000AFF860B9607A6000237B6102
S214401540FB68012B1ED0FB68022B1BD0FB68032BCD
S21440155018D04FF0FF3319E00E4B1A680E4B186840
S214401560BB68591CB9601B78194690470346002B48
S21440157002DA4FF0FF3309E07B6901337B617B6819
S214401580013B7B607B68002BE6D17B6918461837A9
S214401590BD4680BDA0C84020A4C8402080B582B0CB
S2144015A000AF78607868034B984700BF0837BD4661
S2144015B080BD00BF692B400080B500AF0A20084BB5
S2144015C098470B20064B98470C20054B9847102011
S2144015D0034B98471120024B984700BF80BD00BF81
S2144015E09D15400080B489B000AF78607B68FB6191
S2144015F0FB69BB61BB695A09FB697B617B6903F088
S2144016001F03012101FA03F33A61FB603B69BB60AB
S214401610BA68064B13445B021A46FB68536000BF29
S2144016202437BD465DF8047B704700BF070720009F
S21440163080B48DB000AF786039607B68FB623B68F1
S214401640BB62FB6A7B627B6A5A09FB6A3B623B6A07
S21440165003F01F03012101FA03F3FA61BB61BB6A81
S2144016607B61FB693B613A69374B13445B02FB6025
S2144016707B6903F00803002B03D0FB68BA695A66FF
S21440168002E0FB68BA691A667B6903F01003002B18
S21440169004D0FB68BA69C3F8942003E0FB68BA69D3
S2144016A0C3F890207B6903F02003002B03D0FB682F
S2144016B0BA691A6502E0FB68BA695A657B6903F045
S2144016C0C003002B03D0FB68BA691A6202E0FB68CD
S2144016D0BA695A627B6903F08003002B04D0FB682A
S2144016E0BA69C3F8842003E0FB68BA69C3F880206F
S2144016F07B6903F00103002B06D0FB681A6FBB69B9
S2144017001A43FB681A6706E0FB681A6FBB69DB433F
S2144017101A40FB681A677B6903F00203002B06D069
S214401720FB685A6FBB691A43FB685A6706E0FB685A
S2144017305A6FBB69DB431A40FB685A6700BF3437B1
S214401740BD465DF8047B70470707200080B48DB027
S21440175000AF78600B46FB707B68FB62FB7887F8CF
S2144017602B30FB6A7B627B6A3B623B6A5B09FB61B0
S214401770FA69174B13445B02BB6197F82B30012B79
S21440178009D1FB6A7B617B6903F01F0301229A4003
S214401790BB691A610CE097F82B30002B08D1FB6A26
S2144017A03B613B6903F01F0301229A40BB695A61C3
S2144017B0FB6AFB60FB6803F01F0301229A40BB698B
S2144017C0C3F8A02000BF3437BD465DF8047B7047A1
S2144017D00707200080B48BB000AF78600B46FB70E4
S2144017E07B687B62FB7887F823307B6AFB61FB690A
S2144017F0BB61BB695B097B617A69104B13445B0232
S2144018003B6197F82330002B09D07B6AFB60FB686E
S21440181003F01F0301229A403B691A6308E07B6A83
S214401820BB60BB6803F01F0301229A403B695A63C2
S21440183000BF2C37BD465DF8047B70470707200085
S21440184080B48DB000AF78600B46FB707B68FB625F
S214401850FB7887F82B30FB6A7B627B6A5A09FB6A07
S2144018603B623B6A03F01F03012101FA03F3FA616E
S214401870BB6197F82B30FB75FB693B613A69234B9C
S21440188013445B02FB60FB7D013B032B2ED801A279
S21440189052F823F0C9184000DB184000A518400055
S2144018A0B7184000FB68BA69C3F8C420FB68BA6939
S2144018B0C3F8D0201FE0FB68BA69C3F8C420FB68B1
S2144018C0BA69C3F8D42016E0FB68BA69C3F8C020EA
S2144018D0FB68BA69C3F8D0200DE0FB68BA69C3F864
S2144018E0C020FB68BA69C3F8D42004E0FB68BA6934
S2144018F0C3F8B42003E0FB68BA69C3F8B02000BF61
S2144019003437BD465DF8047B704700BF07072000AC
S21440191080B400AFBFF34F8FBFF36F8F0C4A0C4BB2
S214401920D3F8903223F00103C2F89032084A084BAD
S214401930D3F8943223F00103C2F89432BFF34F8FAA
S214401940BFF36F8F00BFBD465DF8047B704700BF96
S21440195000ED00E080B500AF1C4B4FF400425A60EB
S2144019601B4B1C4A5A601A4B1B4A5A601B4B9847E3
S2144019701B4B9847012148201A4B98470121482085
S214401980194B984700210B20164B984788210B206F
S214401990164B984702210B20154B984700211520DF
S2144019A0124B98471520134B9847134A124BD3F8BF
S2144019B0143143F01003C2F81431032124200B4B9A
S2144019C0984724200B4B984700BF80BD50180E40C8
S2144019D0000C0E400C08005A0C07005A1119400023
S2144019E0B91540004D174000D5174000311640004D
S2144019F041184000E51540000080084080B483B0A0
S214401A0000AF78607B6801221A6000BF0C37BD4685
S214401A105DF8047B704780B483B000AF786039606F
S214401A207B683A685A6100BF0C37BD465DF8047B58
S214401A307047000090B583B000AF06200A4B984729
S214401A40002303222C210948094CA04700237B6031
S214401A5002E07B6801337B607B68FE2BF9D900BFD0
S214401A600C37BD4690BD00BF812640000080004038
S214401A70892C400080B584B000AF7860396006207D
S214401A80094B98473A6879680848094B98470023B5
S214401A90FB6002E0FB680133FB60FB68FE2BF9D974
S214401AA000BF1037BD4680BD512640000080004034
S214401AB0BD13400090B587B000AF0346B9607A606A
S214401AC0FB730620144B9847FB7B99B200230322F6
S214401AD01248134CA04700237B6102E07B69013328
S214401AE07B617B69FE2BF9D97B68002B10D00620E2
S214401AF00C4B98477A68B96808480B4B98470023C0
S214401B007B6102E07B6901337B617B695E2BF9D99F
S214401B1000BF1C37BD4690BD812640000080004077
S214401B20892C400051264000BD13400080B584B04B
S214401B3000AF0023BB608123BB7000237B70032370
S214401B40FB6048E0BB1C01221946FB20264B984709
S214401B50BB780133DBB2BB7000237B6002E07B685E
S214401B6001337B607B68FE2BF9D900220021D3200D
S214401B701D4B984706201D4B9847FB1C01221946D3
S214401B801B481C4B984700237B6002E07B68013370
S214401B907B607B68FE2BF9D9FB781A46FB68013BD5
S214401BA0DB0002FA03F31A46BB681343BB607B1C98
S214401BB001221946FB200C4B984700237B6002E02D
S214401BC07B6801337B607B6840F6FE729342F7D9B0
S214401BD0FB68013BFB60FB68002BB3D1BB68184633
S214401BE01037BD4680BD00BFB51A400051264000A4
S214401BF0008000403114400080B485B000AF78606B
S214401C000023FB600CE00023FB6002E0FB6801332E
S214401C10FB60FB68074A9342F8D9FB680133FB60D8
S214401C20FA687B689A42EED300BF1437BD465DF82B
S214401C30047B70479F86010080B487B000AFF86091
S214401C40B9607A603B60FB681B68B3F5A07F03D33E
S214401C50FB6840F23F121A607B681B68B3F5A07FB2
S214401C6003D37B6840F23F121A60BB681B68B3F52B
S214401C70F07F03D3BB6840F2DF121A603B681B68F4
S214401C80B3F5F07F03D33B6840F2DF121A60FB687F
S214401C901A687B681B689A4209D9FB681B687B6197
S214401CA07B681A68FB681A607B687A691A60BB684A
S214401CB01A683B681B689A4209D9BB681B687B61F7
S214401CC03B681A68BB681A603B687A691A6000BF4E
S214401CD01C37BD465DF8047B7047000080B584B075
S214401CE000AF0346FB71FB79002B02D0E823FB7361
S214401CF001E04823FB7307F10F0301221946362003
S214401D00024B984700BF1037BD4680BDB51A40000D
S214401D1090B587B000AF0446084611461A4623469B
S214401D20FB800346BB800B467B8013463B800023EC
S214401D307B6104237B61FB887B827A88FB88134423
S214401D409BB2013B9BB23B82BB88FB813A88BB88F7
S214401D5013449BB2013B9BB2BB8107F112035B78F5
S214401D603B7207F112031B787B7207F110035B7816
S214401D70BB7207F110031B78FB7207F108037A6900
S214401D8019462A20134B9847002200210020114B69
S214401D90984707F10E035B783B7207F10E031B78FA
S214401DA07B7207F10C035B78BB7207F10C031B7860
S214401DB0FB7207F108037A6919462B20054B9847B2
S214401DC0002200210020034B984700BF1C37BD4629
S214401DD090BD00BFB51A400090B589B002AF78609C
S214401DE00323FB604348444B984707F10C0100230C
S214401DF00093424B03223F48414CA0470022032118
S214401E003C48404B984707F10C03194639483E4B2F
S214401E10984738483D4B9847012136483C4B9847B1
S214401E200022002101203B4B9847C8203A4B984758
S214401E30002200211120374B9847C820364B984740
S214401E40364B984778617B6949F28842934201D085
S214401E5001234AE04823FB7407F113030122194685
S214401E6036202C4B984764202B4B98470423FB7412
S214401E7007F1130301221946CF20264B98476420CA
S214401E80254B98470623FB7407F113030122194696
S214401E903A20204B984764201F4B98470022002149
S214401EA013201C4B984764201B4B98471C4B984765
S214401EB06420194B984700201A4B98476420164BCD
S214401EC098477B681B689AB27B685B689BB2002128
S214401ED00020154CA0477B689B681846134B9847D4
S214401EE000210020124B9847002318461C37BD4659
S214401EF090BD00BF0080004041124000002D3101DF
S214401F00B1124000A92D400065134000FD19400065
S214401F10171A4000B51A4000F91B40002D1B400020
S214401F20351F4000DD1C4000111D40004D1F400085
S214401F30A11F400080B500AF002200212920024B9F
S214401F40984700BF80BD00BFB51A400080B485B03A
S214401F5000AF78600023FB6016E0FB685A1CFA600E
S214401F607A68120CD1B20D4AD154FB685A1CFA60FA
S214401F707A68120AD1B2094AD154FB685A1CFA60F0
S214401F807A68D1B2054AD154FB68B3F5707FE4D382
S214401F9000BF1437BD465DF8047B7047E409402017
S214401FA080B584B000AF03460A46FB801346BB802C
S214401FB00023FB600423FB60BB1D5B783B72BB1DAC
S214401FC01B787B72BB1D5B78BB72BB1D1B78FB729C
S214401FD007F10803FA6819462A20114B9847002251
S214401FE0002100200E4B98473B1D5B783B723B1D03
S214401FF01B787B723B1D5B78BB723B1D1B78FB726C
S21440200007F10803FA6819462B20054B984700222B
S21440201000210020024B984700BF1037BD4680BDC8
S214402020B51A400090B587B000AFF860B9607A60E6
S2144020303B603B463A1D07F1080107F10C002A4C6D
S214402040A047FB6898B2BB6899B27B689AB2FB68B7
S2144020509BB2D31A9BB201339CB23B689AB2BB6820
S2144020609BB2D31A9BB201339BB222461F4CA04769
S2144020701F4B98477A68FB68D31A01333968BA68A9
S2144020808A1A013202FB03F33B613B69194AA2FB01
S21440209003231B0A7B6104E04FF470711648174B0C
S2144020A098477B695A1E7A61002BF5D13969114BE6
S2144020B0A3FB01231A0A13469B0013449B01CA1A2A
S2144020C013465B00134419460B480C4B98474FF495
S2144020D0F0734FF4A07200210020044CA04700BFCC
S2144020E01C37BD4690BD00BF391C4000111D400046
S2144020F0351A4000CDCCCCCCE4094020751A4000BF
S21440210080B483B000AF78607B681B6B18460C3792
S214402110BD465DF8047B704780B483B000AF7860FE
S2144021207B68DB6A18460C37BD465DF8047B704713
S21440213080B483B000AF78607B68094A934201D18F
S214402140012306E07B68074A934201D1002300E062
S214402150002318460C37BD465DF8047B704700BF29
S2144021600040064000C0034080B582B000AF034642
S2144021703960FB71FB790A491A013B68134451F8F0
S2144021802330002B07D0FB7905491A013B681344DE
S21440219051F82330984700BF0837BD4680BD00BF82
S2144021A0A8C8402090B587B000AF78607868284BC4
S2144021B0984704467868274B984703462340FB6079
S2144021C07868254B9847386100237B6139E07B6906
S2144021D00B2B0FD801227B6902FA03F31A46FB68E1
S2144021E01340002B2AD03B69DBB2796918461B4B5B
S2144021F0984723E07B690E2B10D87B690C3301226D
S21440220002FA03F31A46FB681340002B16D03B69CC
S214402210DBB279691846114B98470FE07B690F335C
S214402220012202FA03F31A46FB681340002B05D03E
S2144022303B69DBB279691846084B98477B6901339E
S2144022407B617B690F2BC2D900BF1C37BD4690BD52
S2144022500121400019214000312140006921400001
S21440226080B500AF0248034B984700BF80BD00BF13
S21440227000C00340A521400080B500AF0248034B94
S214402280984700BF80BD00BF00400640A5214000E3
S21440229080B485B000AFF860B9607A607B68002B88
S2144022A003D0FB68BA685A6602E0FB68BA681A66EA
S2144022B000BF1437BD465DF8047B704780B487B0D6
S2144022C000AFF860B9607A60FB687A685A64BB68A9
S2144022D0B3F1C05F4AD0B3F1C05F08D8B3F1006F26
S2144022E016D0B3F1805F2CD0002B69D064E0B3F1F8
S2144022F0205F65D0B3F1205F03D8B3F1005F4AD0CA
S2144023005AE0B3F1405F5BD0B3F1605F58D053E022
S214402310FB681B6F7B61FB681A6F7B68D9437B69E0
S2144023200B401A40FB681A67FB685B6F7B61FB6873
S2144023305A6F7B68D9437B690B401A40FB685A67E3
S2144023403AE0FB681B6F7B617A687B691A43FB68DF
S2144023501A67FB685B6F7B61FB685A6F7B68D94383
S2144023607B690B401A40FB685A6725E0FB681B6F89
S2144023707B61FB681A6F7B68D9437B690B401A40C8
S214402380FB681A67FB685B6F7B617A687B691A43F8
S214402390FB685A6710E0FB681B6F7B617A687B6955
S2144023A01A43FB681A67FB685B6F7B617A687B69D8
S2144023B01A43FB685A6700BFFB687A685A6000E0B9
S2144023C000BF1C37BD465DF8047B704780B584B0BF
S2144023D000AFF860B9607A60B968F868194B9847FA
S2144023E07B6803F001031A46B968F868164B9847AD
S2144023F07B6803F00A03002B03D0FB68BA681A62B6
S21440240002E0FB68BA685A627B6803F00203002B5E
S21440241004D0FB68BA68C3F8802008E07B6803F005
S2144024200803002B03D0FB68BA68C3F88420FB6817
S214402430BA685A61FB68BA681A6000BF1037BD4672
S21440244080BD00BF052640009122400080B584B084
S21440245000AFF860B9607A603B60B968F868124BC4
S2144024609847BA69B968F868104B98473B68002B9C
S21440247003D0FB68BA681A6502E0FB68BA685A651A
S2144024807B68002B03D0FB68BA681A6302E0FB68DF
S214402490BA685A63FB68BA681A61FB68BA681A6019
S2144024A000BF1037BD4680BD052640009122400043
S2144024B090B587B002AFF860B9607A603B60BB68A1
S2144024C0B3F1005F16D0B3F1005F09D8B3F1805F77
S2144024D010D0B3F1C05F0DD0B3F1006F0AD03DE02D
S2144024E0B3F1405F1AD0B3F1605F17D0B3F1205F0D
S2144024F00ED033E07A68B968F8681C4B98473B685A
S21440250003F001031A467968F868194B984727E0A4
S2144025103A687968F868174B984721E0BB68B3F18A
S214402520605F0CBF01230023DBB21A463B6803F012
S2144025300403002B14BF01230023DBB219463B687B
S21440254003F00103002B14BF01230023DBB20093EA
S2144025500B467968F868084CA04701E0002300E085
S214402560012318461437BD4690BD00BFBD2240002B
S21440257091224000CD2340004D24400080B485B0D9
S21440258000AFF860B9607A607B6803F01003002BF8
S21440259020D0FB68BA68C3F8B0207B6803F02003FD
S2144025A0002B04D0FB68BA68C3F8D42003E0FB686D
S2144025B0BA68C3F8D0207B6803F04003002B04D0F1
S2144025C0FB68BA68C3F8C02008E0FB68BA68C3F87E
S2144025D0C42003E0FB68BA68C3F8B42000BF1437D1
S2144025E0BD465DF8047B704780B483B000AF78602A
S2144025F039607B683A681A6400BF0C37BD465DF8A0
S214402600047B704780B483B000AF786039607B68E5
S2144026103A685A6400BF0C37BD465DF8047B704785
S21440262080B483B000AF78607B68DB6C18460C37AC
S214402630BD465DF8047B704780B483B000AF7860D9
S2144026407B689B6C18460C37BD465DF8047B70472C
S21440265080B584B000AF78607868084B9847F860DB
S2144026607B6803F01F03012202FA03F31A46FB6855
S2144026701A6300BF1037BD4680BD00BFB12640007C
S21440268080B584B000AF78607868084B9847F860AB
S2144026907B6803F01F03012202FA03F31A46FB6825
S2144026A05A6300BF1037BD4680BD00BFB12640000C
S2144026B080B485B000AF78607B685A09054B1344F8
S2144026C05B02FB60FB6818461437BD465DF8047B2A
S2144026D0704700BF0707200080B584B000AF786021
S2144026E039607868264B9847F8607868254B984755
S2144026F00246FB681340FB60FB68002B3CD000237F
S214402700BB6034E0204ABB681B0113441A683B6830
S2144027109A4226D11C4ABB681B01134404331A68EC
S214402720FB681340002B1CD0174ABB681B011344A0
S2144027300C331B681449BA6812010A4410681249DF
S214402740BA6812010A4404321268114698470E4A83
S214402750BB681B01134404331B68DB43FA68134011
S214402760FB60BB680133BB60BB68062B03D8FB68C5
S214402770002BC7D100E000BF00BF1037BD4680BD6C
S2144027802126400039264000A40D402080B586B062
S21440279000AFF860B9607A603B60214B1B68062B3F
S2144027A001D9012338E00023FB7511E0FB7D1B01B6
S2144027B01C4A13443B613B691A68BB689A4204D181
S2144027C03B695A687B689A4208D0FB7D0133FB75AB
S2144027D0FA7D134B1B689A42E8D900E000BF3B697C
S2144027E0BA681A603B697A685A603B693A689A6088
S2144027F03B693A6ADA60FA7D094B1B6801339A42B4
S21440280004D1074B1B680133054A13603A68796860
S214402810F868054B9847002318461837BD4680BDD4
S214402820140E4020A40D40207D25400080B500AF0A
S2144028300A210248024B984700BF80BD000E0E405A
S214402840D926400080B500AF0B210248024B98477E
S21440285000BF80BD00100E40D926400080B500AFB6
S2144028600C210248024B984700BF80BD00120E4024
S214402870D926400080B500AF10210248024B984749
S21440288000BF80BD00140E40D926400080B500AF82
S21440289011210248024B984700BF80BD00160E40EB
S2144028A0D926400080B483B000AF78607B68013B97
S2144028B0032B1AD801A252F823F000BFCD284000BF
S2144028C0D3284000DB284000E328400000237B60FC
S2144028D00EE04FF480737B600AE04FF440737B60F9
S2144028E006E04FF400737B6002E000237B6000BF8D
S2144028F00A490A4B1B6B23F440727B6813430B63F5
S21440290000BF064B9B6E03F00803002BF9D000BFB8
S2144029100C37BD465DF8047B704700BF00060E408E
S21440292080B485B000AF78601D491D4B1B6B23F00B
S21440293070027B6813430B634FF48053FB6007E0E1
S214402940FB68002B01D1012323E0FB68013BFB60C1
S214402950134B9B6E03F00803002BF1D0104A104B2C
S2144029601B6B23F0030343F0020313634FF48053BF
S214402970FB6007E0FB68002B01D1012309E0FB6800
S214402980013BFB60064B9B6E03F00803002BF1D027
S214402990002318461437BD465DF8047B704700BFD9
S2144029A000060E4080B483B000AF78607B68012B91
S2144029B005D10749064B9A68064B13438B60044B78
S2144029C0054A1A6000BF0C37BD465DF8047B704769
S2144029D010180E40000010A5080000A580B400AFF7
S2144029E0094B5B6903F08003002B07D0074B9B6EB7
S2144029F003F08003002B01D0012300E0002318469B
S214402A00BD465DF8047B704710180E4000060E4029
S214402A1080B483B000AF78601549154B1A6A154BE1
S214402A2013430B6200BF124B9B6E03F40033002B24
S214402A30F9D00F490E4B1A6A0F4B13407A6813436E
S214402A4043F45C130B6200BF094B9B6E03F40033E8
S214402A50002BF9D00649064B1A6A084B134043F43C
S214402A605C130B6200BF0C37BD465DF8047B7047B5
S214402A7000060E40080037008FFFC8FFFFFFC8FE65
S214402A8080B483B000AF786039607B68002B08D094
S214402A901349134B1B6A134A1A40134B13430B62DA
S214402AA018E00F490E4B1A6A104B13403A68120250
S214402AB092B21A430E4B13430B6200BF084B9B6EF9
S214402AC003F00103002BF9D00549054B1A6A094B60
S214402AD013430B6200BF0C37BD465DF8047B70475E
S214402AE000060E40FCFFC8FE02003701FCFFC8FF90
S214402AF0010037000000370180B400AF044B9B6EE6
S214402B0003F480331846BD465DF8047B704700BF2B
S214402B1000060E4080B400AF044B4FF000529A625D
S214402B2000BFBD465DF8047B704700BF00060E4000
S214402B3080B400AF044B9B6E03F002031846BD46BC
S214402B405DF8047B704700BF00060E4080B400AFBF
S214402B50044B9B6E03F040031846BD465DF8047B6D
S214402B60704700BF00060E4080B485B000AF786066
S214402B700B4A7B6803F07F03C2F80C31084BD3F84E
S214402B800C3143F01023FB60054AFB68C2F80C3159
S214402B90002318461437BD465DF8047B704700BFD7
S214402BA000060E4080B483B000AF78607B685B68F8
S214402BB003F00203002B01D0012300E00023184657
S214402BC00C37BD465DF8047B7047000080B582B088
S214402BD000AF78607868034B984700BF0837BD461B
S214402BE080BD00BF692B400080B582B000AF7860E2
S214402BF07B68094A934203D11520084B984706E064
S214402C007B68074A934202D12A20044B984700BF6C
S214402C100837BD4680BD00BF00800040CD2B400039
S214402C200080054080B483B000AF786039607B6830
S214402C305B6823F470227B685A607B685A683B68FE
S214402C401B0403F470231A437B685A6000BF0C379A
S214402C50BD465DF8047B704780B483B000AF7860B3
S214402C6039607B685B6823F07F427B685A607B688C
S214402C705A683B681B061A437B685A6000BF0C378D
S214402C80BD465DF8047B704780B584B000AF786081
S214402C90084611461A4603467B800B467B70134611
S214402CA03B7043F69823FB6006E0FB685A1EFA60CA
S214402CB0002B01D1012320E07B681B6903F002034F
S214402CC0002BF2D078680F4B98470346002B0ED067
S214402CD07A887B781B0403F470231343BB603B78ED
S214402CE0002B06D0BB6843F08073BB6001E07B8856
S214402CF0BB607B68BA68DA60002318461037BD466A
S214402D0080BD00BFA52B400080B485B000AFF86002
S214402D10B9607A607B68002B0CD0FB68BA680C32CE
S214402D2053F8223043F00101FB68BA680C3243F88E
S214402D3022100BE0FB68BA680C3253F8223023F0BE
S214402D400101FB68BA680C3243F8221000BF143702
S214402D50BD465DF8047B704780B485B000AFF86030
S214402D60B9607A607B68002B0CD0FB68BA680C327E
S214402D7053F8223043F00201FB68BA680C3243F83D
S214402D8022100BE0FB68BA680C3253F8223023F06E
S214402D900201FB68BA680C3243F8221000BF1437B1
S214402DA0BD465DF8047B704780B485B000AFF860E0
S214402DB0B9607A607B68042B18D1FB68BA680C321D
S214402DC053F8223023F00801FB68BA680C3243F807
S214402DD02210FB68BA680C3253F8223043F00401E4
S214402DE0FB68BA680C3243F822102AE07B68002B56
S214402DF018D1FB68BA680C3253F8223023F0080129
S214402E00FB68BA680C3243F82210FB68BA680C328A
S214402E1053F8223023F00401FB68BA680C3243F8BA
S214402E2022100EE07B68082B0BD1FB68BA680C3288
S214402E3053F8223043F00801FB68BA680C3243F876
S214402E40221000BF1437BD465DF8047B704780B43F
S214402E5085B000AFF860B9607A60FB68BA680C323B
S214402E6053F8223023F0F001FB68BA680C3243F87E
S214402E702210FB68BA680C3253F822207B6842EA7C
S214402E800301FB68BA680C3243F8221000BF1437BF
S214402E90BD465DF8047B704780B485B000AF78606F
S214402EA039603A687B6813445A1E7B68B2FBF3F37A
S214402EB0FB60FB68002B02DDFB68FF2B02DD4FF05A
S214402EC0FF3301E0FB681BB218461437BD465DF879
S214402ED0047B704780B485B000AFF860B960134695
S214402EE0FB71FB79002B02D14FF0FF331BE0FB68F0
S214402EF0BA680C3253F8223023F47F41FB68BA6834
S214402F000C3243F82210FB68BA680C3253F8222081
S214402F10FB791B029BB242EA0301FB68BA680C329B
S214402F2043F82210002318461437BD465DF8047B4C
S214402F30704780B485B000AFF860B96011461A4655
S214402F400B46FB711346BB71FB68BA680C3253F8EC
S214402F50223099B2FB68BA680C3243F82210FB68FC
S214402F60BA680C3253F82220FB791B0403F47F0323
S214402F70B97909060B4342EA0301FB68BA680C328A
S214402F8043F8221000BF1437BD465DF8047B7047F7
S214402F9080B483B000AF78607B6808221A607B6894
S214402FA020221A607B6804221A6000BF0C37BD4698
S214402FB05DF8047B7047000080B584B000AF786051
S214402FC039600023FB607B684FF0FF329A627B6873
S214402FD01B6A78680B4B984778680B4B98473B685A
S214402FE059683B681B681A467868084B98470346FA
S214402FF0012B01D10123FB60FB6818461037BD4604
S21440300080BD00BF25334000912F40001130400066
S21440301080B489B000AFF860B9607A600023FB6185
S214403020BB68344A934201D901235DE0BB68324A0B
S214403030934237D97B68314AA2FB03239B0B033B61
S2144030407B61BA682E4B13449B007A68B2FBF3F35D
S214403050033B3B6105E0FB690133FB617B695B0831
S2144030607B617B69FF2B09D9FB69062BF3D905E009
S214403070FB690133FB613B695B083B613B69FF2BA6
S21440308002D9FB69062BF3D97B69DAB23B691B028E
S2144030909BB21A43FB691B0403F4E0231A43FB6804
S2144030A01A6120E0BB685B007A68B2FBF3F3033B2F
S2144030B0BB6105E0FB690133FB61BB695B08BB6133
S2144030C0BB69FF2B02D9FB69062BF3D9BB69DAB281
S2144030D0BB691B029BB21A43FB691B0403F4E02343
S2144030E01A43FB681A61002318462437BD465DF82C
S2144030F0047B7047801A060000DC0500F11976054F
S2144031000012FD3F80B485B000AF786039603B6800
S214403110002B01D100231DE07B681B78FB603B68D9
S214403120012B09DDFB681B02FB607B6801331B78C3
S2144031301A46FB681343FB603B68022B09DDFB68BD
S2144031401B02FB607B6802331B781A46FB681343FE
S214403150FB60FB6818461437BD465DF8047B704735
S21440316080B586B000AF786039603B68DB687B61CD
S2144031703B689B683B6147F23053FB607B69002BA2
S21440318001D1012359E07B6800225A603B681B7CD2
S2144031901B0403F4FE023B685B681B0203F44073A7
S2144031A0134343F480527B685A607B680022DA609F
S2144031B03A683B685B6819461046224B9847024679
S2144031C07B68DA607B6801221A6029E07B681B6AAC
S2144031D0BB60BB6803F48073002B01D005232CE052
S2144031E0FB685A1EFA60002B01D1092325E07B6953
S2144031F0012B02D17B6802221A60BB6803F00203EF
S214403200002B00D10CE03B695A1C3A617A68126B7D
S214403210D2B21A707B69013B7B6147F23053FB6048
S2144032207B69002BD2D100BF7B681B6A03F0010389
S214403230002BF9D07B681B6A002318461837BD461A
S21440324080BD00BF0531400080B586B000AF7860D5
S21440325039603B68DB687B613B689B683B617B69A8
S214403260002B01D1012356E07B6800225A603B6860
S2144032701B7C1B0403F4FE023B685B681B0203F4E2
S21440328040731A437B685A607B680022DA603A686B
S2144032903B685B6819461046214B984702467B6858
S2144032A0DA6019E07B681B6AFB60FB6803F4807396
S2144032B0002B01D005232EE0FB6803F00403002B0F
S2144032C000D109E03B695A1C3A611B781A467B6874
S2144032D05A637B69013B7B617B69002BE2D17B684B
S2144032E01B6AFB60FB6803F48073002B01D0052348
S2144032F011E0FB6803F00403002B00D1EFE700BFAA
S2144033007B6802221A6000BF7B681B6A03F00103D9
S214403310002BF9D0002318461837BD4680BD00BFA5
S2144033200531400080B483B000AF78607B6880226F
S2144033301A607B681B6B00BF0C37BD465DF8047B8C
S214403340704780B485B000AF786039600023FB607A
S2144033507B68AC221A603B681A683B685B68B2FBC5
S214403360F3F31B09FB60FB68002B03D0FB68B3F547
S214403370803F01D301230AE07B68FA681A623B6803
S2144033809A687B685A607B6850221A600023184609
S2144033901437BD465DF8047B704780B483B000AFF9
S2144033A078600B46FB707B685B6903F00203002B7A
S2144033B001D1012303E0FA787B68DA6100231846DE
S2144033C00C37BD465DF8047B704780B483B000AFD1
S2144033D0786039607B685B6903F00103002B01D19C
S2144033E0012305E07B689B69DAB23B681A700023CC
S2144033F018460C37BD465DF8047B704780B489B0EC
S21440340000AFF860B9607A60BB681A017B689A4280
S21440341002D81023FB6101E00823FB617B68DA00D9
S214403420FB69B96801FB03F35B081A44FB69B9689A
S21440343001FB03F3B2FBF3F3BB61BB69DB087B61C3
S214403440BB6903F007033B617B69002B03D07B69B4
S214403450B3F5803F01D301230FE0FB69082B05D16C
S214403460FB685B6843F40022FB685A603B691A04B9
S2144034707B691A43FB681A62002318462437BD4608
S2144034805DF8047B7047000080B582B000AF78607E
S21440349078680D4B98477B6800225A607B6800220C
S2144034A05A627B6800229A627868084B9847786828
S2144034B0074B98477868074B98477868064B984775
S2144034C000BF0837BD4680BD693640007B354000AA
S2144034D0AF354000C9354000E535400080B584B082
S2144034E000AFF860B9607A60F8681A4B98471A4B94
S2144034F000221A60BB68002B09D0BB681B687A683C
S2144035001946F868154B98470346002B01D001230F
S2144035101BE0BB685A68BB689B681A43BB681B695C
S2144035201A43BB68DB681A430B4B1B6813430A4AB3
S2144035301360094B1B68084A1360FB685A68064BC1
S2144035401B681A43FB685A60002318461037BD466E
S21440355080BD00BF89344000180E4020FD33400037
S21440356080B483B000AF78607B6840221A6000BFAA
S2144035700C37BD465DF8047B704780B483B000AF1F
S21440358078607B6888221A6000BF0C37BD465DF8BD
S214403590047B704780B483B000AF78607B681022AD
S2144035A01A6000BF0C37BD465DF8047B704780B498
S2144035B083B000AF78607B6824221A6000BF0C3767
S2144035C0BD465DF8047B704780B483B000AF78603A
S2144035D07B684FF480721A6000BF0C37BD465DF8BA
S2144035E0047B704780B483B000AF78607B684FF44C
S2144035F000221A6000BF0C37BD465DF8047B70475A
S21440360080B483B000AF786039607B685B6903F054
S2144036100203002B01D1012305E03B68C3F30802F7
S2144036207B68DA61002318460C37BD465DF8047B9C
S214403630704780B483B000AF786039607B685B6960
S21440364003F00103002B01D1012306E07B689B6950
S214403650C3F308023B681A60002318460C37BD4681
S2144036605DF8047B7047000080B483B000AF78609C
S2144036707B68044AC3F8E42000BF0C37BD465DF8BB
S214403680047B70470041535580B483B000AFEFF3DE
S21440369010837B607B68002B0CBF01230023DBB2CA
S2144036A03B6072B6BFF35F8F044B00221A703B68D4
S2144036B018460C37BD465DF8047B70470A0040202C
S2144036C080B483B000AF78607B68002B14BF0123C2
S2144036D00023DBB218460C37BD465DF8047B7047C6
S2144036E080B582B000AF78607868074B984703464D
S2144036F0002B05D0054B01221A70BFF35F8F62B6D0
S21440370000BF0837BD4680BDC13640000A00402095
S21440371080B584B000AF1E4BFB601E4BBB60FA68A2
S214403720BB689A420CD007E0BB681A1DBA60FA68BC
S214403730111DF96012681A60BB68174A9342F3D3AA
S214403740164BBB6004E0BB681A1DBA6000221A60C4
S214403750BB68134A9342F6D3124BFB60124AFB688F
S21440376023F07F039360114B98477860104A104BC4
S2144037701B6843F470031360BFF34F8FBFF36F8F24
S21440378078680C4B98470C4B98470C4B9847FEE78D
S2144037907CE0400000004020C8094020C809402086
S2144037A0A4C940200000400000ED00E089364000FB
S2144037B088ED00E0E1364000DD794000C17540000C
S2144037C080B400AFFEE7000080B400AF524B1B6BE6
S2144037D003F00303012B14D0012B02D3022B38D065
S2144037E07AE04E4B5B6903F08003002B04D04C4BD1
S2144037F04FF400421A606FE0494B4FF4FA421A60A9
S2144038006AE0454B1B6A03F08073002B03D0444BA1
S214403810444A1A6060E0424B434A1A603E4B1B6A79
S21440382003F07003102B04D0202B08D0002B0ED0B2
S2144038300EE03B4B1B685B00394A136008E0384B90
S2144038401A6813465B001344354A136000E000BF15
S21440385042E0314B1B6A03F08073002B03D0304BA1
S214403860304A1A601CE02E4B2F4A1A602A4B1B6ABD
S21440387003F07003102B04D0202B08D0002B0ED062
S2144038800EE0274B1B685B00254A136008E0244B7C
S2144038901A6813465B001344214A136000E000BFD9
S2144038A01D4B1B6B03F00303022B14D11A4B9B6A70
S2144038B01B0CC3F30A030133194A126802FB03F3D5
S2144038C0174A1360144B9B6ADBB2154A1268B2FB68
S2144038D0F3F3134A136000BF0F4B1B6B03F07003E8
S2144038E0702B08D10E4B1B68104AA2FB03235B08C3
S2144038F00B4A13600AE0084B1B6B1B0903F00703D7
S214403900074A126822FA03F3054A136000BFBD4611
S2144039105DF8047B704700BF00060E4010180E404E
S2144039200C004020001BB70000093D00ABAAAAAA25
S21440393080B483B000AF78607B681D4A934204D859
S2144039401C4B4FF080621A602BE07B681A4A934209
S21440395003D8184B194A1A6023E07B68184A9342EA
S21440396003D8144B174A1A601BE07B68164A9342EA
S21440397003D8104B154A1A6013E07B68144A9342EA
S21440398004D80C4B4FF004221A600AE07B68114AB8
S214403990934203D8074B104A1A6002E0054B0F4A81
S2144039A01A6000BF0C37BD465DF8047B704700BF09
S2144039B0BFF35E01000C0E407FE7BD02000100042D
S2144039C03FDB1C0400020004FFCE7B05000300041E
S2144039D0BFC2DA067FB639080005000400060004B8
S2144039E080B485B000AF7860104BFB60104B1B680E
S2144039F0002B02D10E4B0F4A1A600D4B1B68BB6062
S214403A00BA687B681A44FB689A4202DD4FF0FF337F
S214403A1006E0074B1A687B681344054A1360BB6888
S214403A2018461437BD465DF8047B7047FCFF4520BA
S214403A301C0E4020A8EB402080B483B000AF7860D6
S214403A404FF0FF3318460C37BD465DF8047B704791
S214403A5080B483B000AF786039603B684FF4005262
S214403A605A60002318460C37BD465DF8047B704705
S214403A7080B483B000AF7860012318460C37BD464B
S214403A805DF8047B704780B485B000AFF860B960DD
S214403A907A60002318461437BD465DF8047B7047AD
S214403AA080B483B000AF78607B6803F108027B681F
S214403AB05A607B684FF0FF329A607B6803F10802D9
S214403AC07B68DA607B6803F108027B681A617B6872
S214403AD000221A6000BF0C37BD465DF8047B704775
S214403AE080B483B000AF78607B6800221A6100BF64
S214403AF00C37BD465DF8047B704780B485B000AF98
S214403B00786039607B685B68FB603B68FA685A603F
S214403B10FB689A683B689A60FB689B683A685A609C
S214403B20FB683A689A603B687A681A617B681B68EB
S214403B305A1C7B681A6000BF1437BD465DF8047B8C
S214403B40704780B485B000AF786039603B681B68CA
S214403B50BB60BB68B3F1FF3F03D17B681B69FB606A
S214403B600CE07B680833FB6002E0FB685B68FB6048
S214403B70FB685B681A68BB689A42F6D9FB685A6865
S214403B803B685A603B685B683A689A603B68FA688C
S214403B909A60FB683A685A603B687A681A617B6844
S214403BA01B685A1C7B681A6000BF1437BD465DF818
S214403BB0047B704780B485B000AF78607B681B6933
S214403BC0FB607B685B687A6892689A607B689B68F3
S214403BD07A6852685A60FB685A687B689A4203D192
S214403BE07B689A68FB685A607B6800221A61FB68AB
S214403BF01B685A1EFB681A60FB681B681846143719
S214403C00BD465DF8047B704780B485B000AFF86071
S214403C10B9607A60FB68043BFB60FB684FF08072DB
S214403C201A60FB68043BFB60BA68FB681A60FB6876
S214403C30043BFB600C4AFB681A60FB68143BFB6065
S214403C407A68FB681A60FB68043BFB60FB686FF0B1
S214403C5002021A60FB68203BFB60FB68184614377C
S214403C60BD465DF8047B70476D3C400080B483B031
S214403C7000AF0E4B1B68B3F1FF3F0BD04FF08003F5
S214403C8072B683F31188BFF36F8FBFF34F8F62B660
S214403C907B60FEE74FF0800372B683F31188BFF374
S214403CA06F8FBFF34F8F62B63B60FEE71000402039
S214403CB080B400AF064B19680868B0E8F04F80F350
S214403CC00988BFF36F8F4FF0000080F3118870476C
S214403CD030C6402000BFBD465DF8047B704700BF3D
S214403CE006480068006880F3088862B661B6BFF38D
S214403CF04F8FBFF36F8F00DF00BF00BF08ED00E0BF
S214403D0080B584B000AF2C4BFB60FB681B78DBB201
S214403D10BB60FB68FF221A70FB681B78DBB2FB7146
S214403D20FB79DBB223F07F03DAB2244B1A70244BC4
S214403D3007221A6009E0224B1B68013B204A1360A9
S214403D40FB79DBB25B00DBB2FB71FB79DBB203F0E5
S214403D508003802BEFD01A4B1B681B02184A136057
S214403D60174B1B6803F4E063154A1360BB68DAB26E
S214403D70FB681A70134A134B1B6843F460031360C6
S214403D80104A104B1B6843F0604313600E4B984735
S214403D900E4B00221A600E4B98470E4A0D4B1B687E
S214403DA043F0404313600C4B98470C4B9847002316
S214403DB018461037BD4680BD00E400E0200E402087
S214403DC0240E402020ED00E05D3F400010004020E3
S214403DD0853F400034EF00E0E13C40006D3C400051
S214403DE080B483B000AF4FF0800372B683F311887F
S214403DF0BFF36F8FBFF34F8F62B67B600F4B1B686E
S214403E0001330E4A13600D4B1B68012B10D10C4B2F
S214403E101B68DBB2002B0BD04FF0800372B683F3E7
S214403E201188BFF36F8FBFF34F8F62B63B60FEE7DC
S214403E3000BF0C37BD465DF8047B7047100040203D
S214403E4004ED00E080B483B000AF124B1B68002B3B
S214403E500BD14FF0800372B683F31188BFF36F8F98
S214403E60BFF34F8F62B67B60FEE70A4B1B68013B91
S214403E70084A1360074B1B68002B04D100233B60A5
S214403E803B6883F3118800BF0C37BD465DF8047B62
S214403E90704700BF1000402080B400AFEFF30980A9
S214403EA0BFF36F8F154B1A681EF0100F08BF20ED3A
S214403EB0108A20E9F04F10604DF8043D4FF0800026
S214403EC072B680F31188BFF34F8FBFF36F8F62B621
S214403ED001F01CFB4FF0000080F3118808BC196805
S214403EE00868B0E8F04F1EF0100F08BFB0EC108A1C
S214403EF080F30988BFF36F8F704700BF30C64020FD
S214403F0000BFBD465DF8047B704700BF80B584B0F7
S214403F1000AFEFF311824FF0800372B683F311883F
S214403F20BFF36F8FBFF34F8F62B6FA60BB60094B2B
S214403F3098470346002B03D0074B4FF080521A6039
S214403F4000237B607B6883F3118800BF1037BD4633
S214403F5080BD00BF6D53400004ED00E080B400AF6C
S214403F60054B064A1A60064B07221A6000BFBD463C
S214403F705DF8047B704700BF14E000E07FA90300B3
S214403F8010E000E0DFF80C00016841F470010160C9
S214403F90704700BF88ED00E080B485B000AFEFF317
S214403FA00583FB60FB680F2B15D9184AFB68134442
S214403FB01B78FB72164B1B78FA7A9A420BD24FF05C
S214403FC0800372B683F31188BFF36F8FBFF34F8FB2
S214403FD062B67B60FEE70F4B1B6803F4E0620E4B55
S214403FE01B689A420BD94FF0800372B683F3118850
S214403FF0BFF36F8FBFF34F8F62B63B60FEE700BFE5
S2144040001437BD465DF8047B704700BFF0E300E020
S214404010200E40200CED00E0240E402080B584B0F9
S21440402000AF78600023FB607B6803F00703002B3B
S21440403004D07B6823F0070308337B60194B98470E
S214404040194B1B68002B05D1184B23F007031A4663
S214404050154B1A60164B1A687B6813444BF2F7727E
S214404060934213D8124B1A687B681A44104B1B684D
S2144040709A420BD90C4B1A680D4B1B681344FB60D5
S2144040800B4B1A687B681344094A1360094B9847E0
S214404090FB68002B01D1084B9847FB681846103741
S2144040A0BD4680BDD95040002CC64020300E402032
S2144040B028C64020F5504000D76F400080B485B0F9
S2144040C000AF78607B68002B0BD04FF0800372B651
S2144040D083F31188BFF36F8FBFF34F8F62B6FB60D9
S2144040E0FEE700BF1437BD465DF8047B704700000E
S2144040F080B584B000AF786039607B68FB60FB6851
S214404100002B0BD14FF0800372B683F31188BFF3B8
S2144041106F8FBFF34F8F62B6BB60FEE7284B984762
S214404120FB681A68FB68DB6BF968096C01FB03F3F4
S2144041301A44FB685A60FB6800229A63FB681A6858
S214404140FB689A60FB681A68FB68DB6B013BF968A2
S214404150096C01FB03F31A44FB68DA60FB684FF016
S214404160FF325A64FB684FF0FF329A643B68002B7C
S21440417014D1FB681B69002B1AD0FB681033184615
S214404180104B98470346012B12D10F4B4FF08052ED
S2144041901A60BFF34F8FBFF36F8F09E0FB68103391
S2144041A018460A4B9847FB6824331846074B9847EF
S2144041B0074B9847012318461037BD4680BD00BFC1
S2144041C0E13D40007157400004ED00E0A13A400058
S2144041D0453E400080B58AB000AFF860B9601346EF
S2144041E0FB7100233B62FB68002B0BD14FF0800332
S2144041F072B683F31188BFF36F8FBFF34F8F62B6EB
S214404200BB61FEE7BB68002B02D100237B6205E062
S214404210FB68BA6802FB03F301337B627B6A583360
S21440422018461C4B9847F861FB69002B1ED0BB68AC
S214404230002B03D1FB69FA691A6004E0FB6903F1BD
S2144042405802FB691A60FB69FA68DA63FB69BA6868
S2144042501A640121F869104B9847FB69FA7983F88C
S2144042605020FB6900225A65FB693B623B6A002B83
S2144042700BD14FF0800372B683F31188BFF36F8F74
S214404280BFF34F8F62B67B61FEE73B6A184628371E
S214404290BD4680BD1D404000F140400080B58EB018
S2144042A000AFF860B9607A603B6000237B63FB68D0
S2144042B03B633B6B002B0BD14FF0800372B683F30E
S2144042C01188BFF36F8FBFF34F8F62B6BB62FEE7B6
S2144042D0BB68002B03D13B6B1B6C002B01D1012329
S2144042E000E00023002B0BD14FF0800372B683F31F
S2144042F01188BFF36F8FBFF34F8F62B67B62FEE7C6
S2144043003B68022B03D13B6BDB6B012B01D10123B6
S21440431000E00023002B0BD14FF0800372B683F3EE
S2144043201188BFF36F8FBFF34F8F62B63B62FEE7D5
S214404330614B98470346002B02D17B68002B01D186
S214404340012300E00023002B0BD14FF0800372B610
S21440435083F31188BFF36F8FBFF34F8F62B6FB6155
S214404360FEE7564B98473B6B9A6B3B6BDB6B9A4230
S21440437002D33B68022B3DD13A68B968386B504B44
S2144043809847F8623B6B5B6D002B0FD03968386BF3
S2144043904C4B98470346012B28D14B4B4FF080524D
S2144043A01A60BFF34F8FBFF36F8F1FE03B6B5B6AA4
S2144043B0002B10D03B6B24331846444B984703469B
S2144043C0012B13D1404B4FF080521A60BFF34F8FF2
S2144043D0BFF36F8F0AE0FB6A002B07D03A4B4FF0D3
S2144043E080521A60BFF34F8FBFF36F8F384B98479A
S2144043F001235DE07B68002B03D1354B98470023B3
S21440440056E07B6B002B06D107F114031846314B60
S214404410984701237B632E4B98472F4B9847274B53
S21440442098473B6B5B6CB3F1FF3F02D13B6B00227E
S2144044305A643B6B9B6CB3F1FF3F02D13B6B00224F
S2144044409A64234B98473A1D07F1140311461846C1
S214404450224B98470346002B24D1386B204B984775
S2144044600346002B18D03B6B10337A68114618462B
S2144044701C4B9847386B1C4B98471C4B9847034639
S214404480002B7FF46EAF104B4FF080521A60BFF394
S2144044904F8FBFF36F8F64E7386B134B9847134BC0
S2144044A098475EE7386B104B9847104B9847002369
S2144044B018463837BD4680BD155E4000E13D400099
S2144044C0D9494000F94C400004ED00E071574000E7
S2144044D0453E400041584000D95040008D5840006D
S2144044E0054C400015564000094B4000F550400032
S2144044F080B58EB000AFF860B9607A603B60FB680C
S2144045003B633B6B002B0BD14FF0800372B683F3BB
S2144045101188BFF36F8FBFF34F8F62B6BB62FEE763
S214404520BB68002B03D13B6B1B6C002B01D10123D6
S21440453000E00023002B0BD14FF0800372B683F3CC
S2144045401188BFF36F8FBFF34F8F62B67B62FEE773
S2144045503B68022B03D13B6BDB6B012B01D1012364
S21440456000E00023002B0BD14FF0800372B683F39C
S2144045701188BFF36F8FBFF34F8F62B63B62FEE783
S2144045802E4B9847EFF311824FF0800372B683F3B9
S2144045901188BFF36F8FBFF34F8F62B6FA61BB616E
S2144045A0FB69FB623B6B9A6B3B6BDB6B9A4202D3BD
S2144045B03B68022B36D13A68B968386B204B98472F
S2144045C03B6B9B6CB3F1FF3F24D13B6B5B6D002B89
S2144045D00DD03968386B1B4B98470346012B1ED1CC
S2144045E07B68002B1BD07B6801221A6017E03B6B70
S2144045F05B6A002B13D03B6B24331846124B98470C
S2144046000346002B0BD07B68002B08D07B6801222A
S2144046101A6004E03B6B9B6C5A1C3B6B9A6401230C
S2144046207B6301E000237B63FB6A7B617B6983F3EA
S21440463011887B6B18463837BD4680BD993F400091
S214404640D9494000F94C40007157400080B58CB0C5
S21440465000AF786039607B68BB62BB6A002B0BD1C9
S2144046604FF0800372B683F31188BFF36F8FBFF3AA
S2144046704F8F62B63B62FEE7BB6A1B6C002B0BD0CB
S2144046804FF0800372B683F31188BFF36F8FBFF38A
S2144046904F8F62B6FB61FEE7BB6A1B68002B03D1F7
S2144046A0BB6A5B68002B01D1012300E00023002B8E
S2144046B00BD14FF0800372B683F31188BFF36F8F30
S2144046C0BFF34F8F62B6BB61FEE72D4B9847EFF3C3
S2144046D011824FF0800372B683F31188BFF36F8F59
S2144046E0BFF34F8F62B67A613B617B697B62BB6A80
S2144046F09A6BBB6ADB6B9A4236D2BB6A9B6B5A1C80
S214404700BB6A9A63BB6A9B6CB3F1FF3F24D1BB6A1A
S2144047105B6D002B0DD00021B86A1A4B98470346B4
S214404720012B1ED13B68002B1BD03B6801221A6030
S21440473017E0BB6A5B6A002B13D0BB6A243318466B
S214404740114B98470346002B0BD03B68002B08D0F4
S2144047503B6801221A6004E0BB6A9B6C5A1CBB6A29
S2144047609A640123FB6201E00023FB627B6AFB60E4
S214404770FB6883F31188FB6A18463037BD4680BD18
S214404780993F4000F94C40007157400080B58CB0CE
S21440479000AFF860B9607A603B600023FB62FB685C
S2144047A0BB62BB6A002B0BD14FF0800372B683F31B
S2144047B01188BFF36F8FBFF34F8F62B63B62FEE741
S2144047C0BB68002B03D1BB6A1B6C002B01D10123B5
S2144047D000E00023002B0BD14FF0800372B683F32A
S2144047E01188BFF36F8FBFF34F8F62B6FB61FEE752
S2144047F06A4B98470346002B02D17B68002B01D1B9
S214404800012300E00023002B0BD14FF0800372B64B
S21440481083F31188BFF36F8FBFF34F8F62B6BB61D0
S214404820FEE75F4B9847BB6A9B6B002B47D0BB6A43
S214404830DB687B62B968B86A5A4B98473B68002B7E
S21440484022D1BB6A9B6B5A1EBB6A9A63BB6A1B68C3
S214404850002B04D1544B98470246BB6A5A60BB6A49
S2144048601B69002B27D0BB6A103318464F4B98471E
S2144048700346012B1FD14E4B4FF080521A60BFF3B8
S2144048804F8FBFF36F8F16E0BB6A7A6ADA60BB6AF7
S2144048905B6A002B0FD0BB6A24331846434B9847BD
S2144048A00346002B07D0424B4FF080521A60BFF3AE
S2144048B04F8FBFF36F8F3F4B984701236AE07B686B
S2144048C0002B03D13B4B9847002363E0FB6A002B49
S2144048D006D107F110031846374B98470123FB6271
S2144048E0344B9847354B98472D4B9847BB6A5B6C83
S2144048F0B3F1FF3F02D1BB6A00225A64BB6A9B6C8D
S214404900B3F1FF3F02D1BB6A00229A64294B984715
S2144049103A1D07F1100311461846294B984703469F
S214404920002B31D1B86A274B98470346002B25D039
S214404930BB6A1B68002B08D1194B9847BB6A5B685B
S2144049401846214B98471B4B9847BB6A24337A68D6
S214404950114618461D4B9847B86A1D4B98471D4B45
S21440496098470346002B7FF45CAF114B4FF08052C4
S2144049701A60BFF34F8FBFF36F8F52E7B86A144B7E
S2144049809847144B98474CE7B86A114B9847114BD9
S2144049909847002318463037BD4680BD155E400018
S2144049A0E13D4000B94A4000C561400071574000B3
S2144049B004ED00E0453E400041584000D9504000DC
S2144049C08D584000D14B4000515E40001556400087
S2144049D0094B4000F550400080B586B000AFF86007
S2144049E0B9607A6000237B61FB681B6C002B0DD19D
S2144049F0FB681B68002B50D1FB685B6818462C4B45
S214404A0098477861FB6800225A6046E07B68002B36
S214404A1019D1FB689868FB681B6C1A46B968254B29
S214404A209847FB689A68FB681B6C1A44FB689A6058
S214404A30FB689A68FB685B689A422ED3FB681A68E4
S214404A40FB689A6029E0FB68D868FB681B6C1A46CE
S214404A50B968184B9847FB68DA68FB681B6C5B4282
S214404A601A44FB68DA60FB68DA68FB681B689A429F
S214404A7007D2FB685A68FB681B6C5B421A44FB68AB
S214404A80DA607B68022B08D1FB689B6B002B04D056
S214404A90FB689B6B5A1EFB689A63FB689B6B5A1CB1
S214404AA0FB689A637B6918461837BD4680BD00BFD1
S214404AB0455F4000C57F400080B582B000AF78605B
S214404AC039607B681B6C002B18D07B68DA687B6883
S214404AD01B6C1A447B68DA607B68DA687B685B68C4
S214404AE09A4203D37B681A687B68DA607B68D96829
S214404AF07B681B6C1A463868024B984700BF0837DD
S214404B00BD4680BDC57F400080B582B000AF7860AE
S214404B102A4B984720E07B685B6D002B09D000212C
S214404B207868274B98470346012B10D1254B98476A
S214404B300DE07B685B6A002B13D07B6824331846F5
S214404B40214B98470346002B01D01E4B98477B6865
S214404B509B6C5A1E7B689A647B689B6C002BDADCE5
S214404B6000E000BF7B684FF0FF329A64174B9847CF
S214404B70124B984712E07B681B69002B13D07B686A
S214404B8010331846104B98470346002B01D00D4B68
S214404B9098477B685B6C5A1E7B685A647B685B6C84
S214404BA0002BE8DC00E000BF7B684FF0FF325A6421
S214404BB0064B984700BF0837BD4680BDE13D4000E4
S214404BC0F94C40005D59400071574000453E40005A
S214404BD080B584B000AF7860084B98477B689B6B85
S214404BE0002B02D10123FB6001E00023FB60044B55
S214404BF09847FB6818461037BD4680BDE13D4000EB
S214404C00453E400080B584B000AF7860094B984779
S214404C107B689A6B7B68DB6B9A4202D10123FB6010
S214404C2001E00023FB60044B9847FB6818461037AA
S214404C30BD4680BDE13D4000453E400080B485B065
S214404C4000AF786039600023FB6014E00E4AFB68D2
S214404C5052F83330002B0BD10B49FB683A6841F8C9
S214404C603320094AFB68DB0013447A685A6005E043
S214404C70FB680133FB60FB68072BE7D900BF14379E
S214404C80BD465DF8047B704728C9402080B586B095
S214404C9000AFF860B9607A60FB687B61124B98475A
S214404CA07B695B6CB3F1FF3F02D17B6900225A649B
S214404CB07B699B6CB3F1FF3F02D17B6900229A640B
S214404CC00A4B98477B699B6B002B06D17B69243344
S214404CD07A68B9681846064B98477869054B9847EE
S214404CE000BF1837BD4680BDE13D4000453E400010
S214404CF0C5564000094B400080B586B000AF78608E
S214404D0039607B685B6D3B6100237B613B69002BB0
S214404D100BD14FF0800372B683F31188BFF36F8FC9
S214404D20BFF34F8F62B6FB60FEE73B699A6B3B6909
S214404D30DB6B9A420BD34FF0800372B683F3118835
S214404D40BFF36F8FBFF34F8F62B6BB60FEE73B6922
S214404D509A6B3B69DB6B9A421FD23B1D3A681946F9
S214404D603869104B984778613B699B6CB3F1FF3FBD
S214404D700ED13B695B6A002B0FD03B692433184643
S214404D80094B98470346002B07D001237B6104E07C
S214404D903B699B6C5A1C3B699A647B69184618377A
S214404DA0BD4680BDD94940007157400090B58DB092
S214404DB002AFF860B9603B601346FB80FB68002B8F
S214404DC00BD14FF0800372B683F31188BFF36F8F19
S214404DD0BFF34F8F62B6BB61FEE7BB6B042B0BD9AC
S214404DE04FF0800372B683F31188BFF36F8FBFF323
S214404DF04F8F62B67B61FEE7FB88396C18464F4B97
S214404E00984738623B6A002B7AD03B6A1A6BF9881F
S214404E106FF040430B449B001344FB61FB6923F057
S214404E200703FB61FB6903F00703002B0BD04FF031
S214404E30800372B683F31188BFF36F8FBFF34F8F33
S214404E4062B63B61FEE7FB8800937B6CBA6BB96841
S214404E50386A3B4CA0473A68F968F869394B984736
S214404E6002463B6A1A60FB6B002B02D0FB6B3A6A29
S214404E701A60354B9847354B1B680133334A1360ED
S214404E80334B1B68002B09D1314A3B6A13602F4BCA
S214404E901B68012B0FD12F4B98470CE02E4B1B68FD
S214404EA0002B08D12A4B1B68DA6ABB6B9A4202D8A1
S214404EB0274A3B6A1360294B1B680133274A136015
S214404EC0264B1A683B6A1A643B6ADB6A01229A40A0
S214404ED0234B1B681343224A13603B6ADA6A134625
S214404EE09B0013449B001F4A1A443B6A04331946EE
S214404EF010461D4B984701237B621C4B984702E0A7
S214404F004FF0FF337B627B6A012B11D1124B1B683B
S214404F10002B0DD00E4B1B68DA6ABB6B9A4207D249
S214404F20134B4FF080521A60BFF34F8FBFF36F8F13
S214404F307B6A18462C37BD4690BD00BFD95B400003
S214404F40A9594000093C4000E13D400008C74020C8
S214404F5030C64020555A400014C7402024C7402041
S214404F6010C7402034C64020FB3A4000453E400033
S214404F7004ED00E080B586B000AF786000237B612A
S214404F807B68002B31D0204B1B68002B0BD04FF09A
S214404F90800372B683F31188BFF36F8FBFF34F8FD2
S214404FA062B6FB60FEE7194B9847194B1A687B6858
S214404FB013443B61174B1B6804331846164B9847FF
S214404FC00346002B0BD1134B1B68DB6A012202FA07
S214404FD003F3DA43114B1B681340104A13603869D9
S214404FE00F4B98470F4B984778617B69002B07D14A
S214404FF00D4B4FF080521A60BFF34F8FBFF36F8F49
S21440500000BF1837BD4680BD2CC74020D950400051
S2144050100CC7402030C64020B53B400010C740205B
S214405020695B4000F550400004ED00E090B589B063
S21440503004AF00230393002302930023019300232D
S2144050400093002382221C491C481D4CA047F86050
S214405050FB68012B02D11B4B9847F860FB68012B7D
S21440506017D14FF0800372B683F31188BFF36F8F6A
S214405070BFF34F8F62B6BB60134B4FF0FF321A60E0
S214405080124B01221A60124B00221A60114B9847AD
S2144050900EE0FB68002B0BD14FF0800372B683F313
S2144050A01188BFF36F8FBFF34F8F62B67B60FEE70A
S2144050B000BF1437BD4690BDFCDB4000755940002C
S2144050C0AD4D4000ED61400028C7402014C7402049
S2144050D00CC74020013D400080B400AF044B1B6825
S2144050E00133034A136000BFBD465DF8047B70473A
S2144050F02CC7402080B584B000AF0023FB603F4BF8
S2144051001B68002B0BD14FF0800372B683F31188D7
S214405110BFF36F8FBFF34F8F62B67B60FEE7384BAF
S2144051209847364B1B68013B344A1360334B1B6829
S214405130002B5BD1334B1B68002B57D02EE0324BF5
S214405140DB68DB68BB60BB68183318462F4B984754
S214405150BB68043318462D4B9847BB68DB6A012270
S2144051609A402B4B1B681343294A1360BB68DA6A84
S21440517013469B0013449B00264A1A44BB680433DC
S21440518019461046244B9847BB68DA6A234B1B687F
S214405190DB6A9A4202D3224B01221A601A4B1B68E2
S2144051A0002BCCD11F4B1B68002B11D00CE01E4BA4
S2144051B098470346002B02D0194B01221A60194B20
S2144051C01B68013B174A1360164B1B68002BEED139
S2144051D0134B1B68012B09D10123FB60134B4FF087
S2144051E080521A60BFF34F8FBFF36F8F104B9847B4
S2144051F0FB6818461037BD4680BD00BF2CC7402010
S214405200E13D400008C74020C8C64020B53B4000AE
S21440521010C7402034C64020FB3A400030C64020ED
S2144052201CC7402018C740206D53400004ED00E0E6
S214405230453E400080B483B000AF054B1B687B60A2
S2144052407B6818460C37BD465DF8047B704700BF48
S2144052500CC7402080B400AF034B1B681846BD46C1
S2144052605DF8047B704700BF08C7402080B586B015
S21440527000AFF860B9607A6000237B6105233B612C
S214405280314B9847314B1B68BA689A4254D33B69B6
S214405290013B3B617B695B01FA68D0183A6913466B
S2144052A09B0013449B002A4A134401221946294B6B
S2144052B0984702467B6913447B613B69002BE6D1E5
S2144052C07B695B01FA68D018234B1B68022219469B
S2144052D0204B984702467B6913447B617B695B01A0
S2144052E0FA68D0181D4B1B6802221946194B98477E
S2144052F002467B6913447B617B695B01FA68134411
S214405300042217491846134B984702467B691344B4
S2144053107B617B695B01FA68134403221149184696
S2144053200C4B984702467B6913447B617B68002B95
S21440533002D07B6800221A600B4B98477B69184660
S2144053401837BD4680BD00BFD950400008C7402032
S21440535034C64020515C4000C0C64020C4C64020F1
S214405360DCC64020F4C64020F550400080B586B0EC
S21440537000AF00237B61564B1B68002B40F09580A6
S214405380544B1B680133534A1360524B1B683B61B6
S2144053903B69002B21D1504B1B681B68002B0BD060
S2144053A04FF0800372B683F31188BFF36F8FBFF35D
S2144053B04F8F62B63B60FEE7474B1B68FB60474B30
S2144053C01B68454A1360454AFB681360444B1B689C
S2144053D00133434A1360434B9847434B1B683A6933
S2144053E09A424DD33C4B1B681B68002B01D10123CE
S2144053F000E00023002B04D03B4B4FF0FF321A60F6
S2144054003EE0354B1B68DB68DB68BB60BB685B68AF
S2144054107B603A697B689A4203D2334A7B68136062
S2144054202EE0BB6804331846304B9847BB689B6AEF
S214405430002B04D0BB68183318462C4B9847BB68E3
S214405440DB6A01229A402A4B1B681343284A1360A2
S214405450BB68DA6A13469B0013449B00254A1A44ED
S214405460BB68043319461046234B9847BB68DA6A34
S214405470224B1B68DB6A9A42B4D301237B61B1E7B7
S2144054801E4B1B68DA6A1B4913469B0013449B005D
S2144054900B441B68012B01D901237B61184B1B6809
S2144054A0002B09D1174B984706E0154B1B68013374
S2144054B0134A1360134B9847134B1B68002B01D0BD
S2144054C001237B617B6918461837BD4680BD00BF07
S2144054D02CC740200CC74020C0C64020C4C6402031
S2144054E020C74020C95D400028C74020B53B40004B
S2144054F010C7402034C64020FB3A400030C640200B
S21440550018C74020C96F40001CC7402080B588B0EF
S21440551000AF3A4B1B68002B03D0394B01221A6070
S21440552067E0374B00221A60364B1B681B6BFB61EB
S2144055304FF0A533BB61FB691A68BB699A4211D12B
S214405540FB6904331A68BB699A420BD1FB6908337E
S2144055501A68BB699A4205D1FB690C331A68BB6965
S2144055609A4208D0274B1A68264B1B683433194694
S2144055701046254B9847254B1B68FB60FB68B3FAE3
S21440558083F3FB72FB7AC3F11F037B6120497A6980
S21440559013469B0013449B000B441B68002B0BD107
S2144055A04FF0800372B683F31188BFF36F8FBFF35B
S2144055B04F8F62B67B60FEE77A6913469B001344C2
S2144055C09B00134A13443B613B695B685A683B69DE
S2144055D05A603B695A683B6908339A4204D13B6932
S2144055E05B685A683B695A603B695B68DB68054A9A
S2144055F0136000BF2037BD4680BD00BF2CC740208B
S2144056001CC7402030C64020A96F400010C740202D
S21440561034C6402080B584B000AF786039607B687F
S214405620002B0BD14FF0800372B683F31188BFF383
S2144056306F8FBFF34F8F62B6BB60FEE7194B1B6898
S214405640183319467868184B9847164B1B6804332E
S2144056501846164B98470346002B0BD1114B1B6838
S214405660DB6A012202FA03F3DA43114B1B6813404C
S2144056700F4A13603B68B3F1FF3F07D1094B1B68E5
S214405680043319460B480C4B984707E00B4B1A68F7
S2144056903B681344FB60F868094B984700BF1037D7
S2144056A0BD4680BD30C64020433B4000B53B400031
S2144056B010C74020F4C64020FB3A40000CC74020AC
S2144056C0695B400080B586B000AFF860B9607A602C
S2144056D0FB68002B0BD14FF0800372B683F3118822
S2144056E0BFF36F8FBFF34F8F62B63B61FEE7194B38
S2144056F01B6818331946F868174B9847154B1B68B4
S21440570004331846154B98470346002B0BD1114BD4
S2144057101B68DB6A012202FA03F3DA43104B1B686C
S21440572013400F4A13607B68012B07D1094B1B6857
S214405730043319460B48084B984707E00A4B1A684B
S214405740BB6813447B617869084B984700BF18379D
S214405750BD4680BD30C64020FB3A4000B53B4000C9
S21440576010C74020F4C640200CC74020695B40006C
S21440577080B586B000AF78607B68DB68DB683B61ED
S2144057803B69002B0BD14FF0800372B683F3118830
S214405790BFF36F8FBFF34F8F62B6FB60FEE73B6988
S2144057A0183318461E4B98471E4B1B68002B1CD1BF
S2144057B03B69043318461A4B98473B69DB6A01221B
S2144057C09A40194B1B681343174A13603B69DA6AC1
S2144057D013469B0013449B00144A1A443B69043307
S2144057E019461046124B984705E03B691833194650
S2144057F010480F4B98473B69DA6A0F4B1B68DB6AC9
S2144058009A4205D901237B610C4B01221A6001E0C4
S21440581000237B617B6918461837BD4680BD00BFB4
S214405820B53B40002CC7402010C7402034C640201F
S214405830FB3A4000C8C6402030C640201CC7402027
S21440584080B485B000AF78607B68002B0BD14FF0FA
S214405850800372B683F31188BFF36F8FBFF34F8F09
S21440586062B6FB60FEE7074B1A687B681A60064B19
S2144058701A687B685A6000BF1437BD465DF8047BE3
S214405880704700BF20C740200CC7402080B586B078
S21440589000AF786039607B68002B0BD14FF08003F7
S2144058A072B683F31188BFF36F8FBFF34F8F62B624
S2144058B0FB60FEE73B68002B0BD14FF0800372B6CF
S2144058C083F31188BFF36F8FBFF34F8F62B6BB6011
