S00B00004144432E7372656351
S214400000502B4020F12A4000A12B4000A12B40005D
S214400010A12B4000A12B4000A12B40000000000077
S214400020000000000000000000000000A12B40007F
S214400030A12B400000000000A12B4000A12B400057
S214400040A12B4000A12B4000A12B4000A12B40003B
S214400050A12B4000A12B4000A12B4000A12B40002B
S214400060A12B4000000000001D1F4000351F40002F
S2144000704D1F4000A12B4000A12B4000A12B40006B
S214400080651F40007D1F4000A12B4000A12B400073
S214400090A12B4000A12B4000A12B4000850840002A
S2144000A045084000A12B4000A12B4000A12B40005A
S2144000B0A12B4000D91D4000A12B4000A12B4000A1
S2144000C0A12B4000A12B4000A12B4000A12B4000BB
S2144000D000000000A12B400000000000A12B4000C3
S2144000E0F11D4000A12B4000A12B4000A12B400059
S2144000F0A12B4000A12B4000A12B4000A12B40008B
S214400100A12B4000A12B4000A12B4000A12B40007A
S214400110A12B40000000000000000000000000008E
S214400120A12B4000A12B4000A12B4000A12B40005A
S214400130A12B400000000000A12B4000A12B400056
S21440014010B5054C237833B9044B13B10448AFF3CC
S21440015000800123237010BDB80940200000000035
S214400160CC6040000C4B43B10C480D4910B5AFF382
S21440017000800C48036823B910BD0A48036833B9A9
S2144001807047094B002BF7D0BDE810401847064B88
S214400190002BF5D0184700BF00000000CC604000A0
S2144001A0BC094020CC6040000000000080B483B012
S2144001B000AF0346FB71094997F907305B09FA79A6
S2144001C002F01F02012000FA02F241F8232000BF8D
S2144001D00C37BD465DF8047B704700BF00E100E089
S2144001E080B483B000AF78600B467B8000BF0C378E
S2144001F0BD465DF8047B704780B485B000AF78603C
S2144002000B46FB707B685B68FB60FB78FF2B04D17A
S214400210FB6843F08003FB6007E0FB6823F08F0336
S214400220FB60FB78FA681343FB607B68FA685A60A9
S21440023000BF1437BD465DF8047B704780B483B07A
S21440024000AF78607B6802221A6000BF0C37BD465C
S2144002505DF8047B7047000080B582B000AF7860E0
S2144002600B467B807B8840F6FF72934204D07B88A7
S214400270194678680A4B98477B8840F6FF72934247
S21440028005D07B88012202FA03F31A4601E040F6C5
S214400290FF727B685A6100BF0837BD4680BD00BF0D
S2144002A0E101400080B582B000AF78600B467B80AD
S2144002B07B8819467868054B98477A887B685A66E3
S2144002C07B689B6E18460837BD4680BDE1014000FE
S2144002D080B582B000AF78600B467B8013463B808B
S2144002E07B8819467868074B98477A887B685A66B1
S2144002F03B88C3F30B027B68DA6600BF0837BD460F
S21440030080BD00BFE101400080B483B000AF78609C
S2144003107B68072B25D801A252F823F03D03400006
S21440032043034000490340004F034000530340004E
S214400330570340005B0340005F0340004FF4FA431E
S21440034010E04FF400430DE04FF400430AE0084B42
S21440035008E0084B06E0084B04E0074B02E0064B7B
S21440036000E0002318460C37BD465DF8047B704716
S21440037000093D0000127A00001BB70080B500AFB0
S2144003800620054B9847024613469B0013449A00A6
S2144003901344184680BD00BF0903400080B500AF37
S2144003A0024B98470346184680BD00BF7D03400079
S2144003B080B500AF024B984703465B08184680BDA1
S2144003C07D03400080B582B000AF78607868034B0C
S2144003D0984700BF0837BD4680BD00BF5922400041
S2144003E080B500AF0A20084B98470B20064B98472D
S2144003F00C20054B98471020034B98471120024B82
S214400400984700BF80BD00BFC503400080B58CB094
S21440041000AF78603960494B984703467B623B683B
S2144004201B68BB623B689B68FB623B681B68FB6063
S2144004303B685B683B613B689B687B613B68DB680D
S214400440BB610023FB617B683D4A934208D107208D
S2144004503C4B984707F12403194678683A4B98472F
S2144004607B683A4A934208D10820364B984707F1B2
S214400470240319467868344B98477B68344A93423D
S21440048008D12C202F4B984707F12403194678684B
S2144004902D4B98477B682F4A934208D12D20294BF5
S2144004A0984707F1240319467868274B98477B6896
S2144004B0294A934211D10D20224B98471F4B98470B
S2144004C0024607F10C0319467868244B984778682B
S2144004D0234B98477868234B98477B68224A934239
S2144004E011D10E20174B9847144B9847024607F1F8
S2144004F00C0319467868194B98477868184B984704
S2144005007868184B98477B68184A934211D10F2059
S2144005100C4B9847094B9847024607F10C0319467F
S21440052078680E4B984778680D4B984778680D4B1F
S214400530984700BF3037BD4680BD00BFB10340007E
S21440054000080E40C503400025274000000A0E4024
S214400550001A0E40001C0E4000400240BD284000DD
S21440056041294000752940000080024000C00240FA
S21440057080B582B000AF78600B46FB707B68364A29
S21440058093420AD100BFFB7819467868334B9847A8
S2144005900346002BF7D101235AE07B68304A93424A
S2144005A00AD100BFFB78194678682C4B984703461B
S2144005B0002BF7D101234BE07B682A4A93420AD1AD
S2144005C000BFFB7819467868244B98470346002BB3
S2144005D0F7D101233CE07B68234A93420AD100BF0F
S2144005E0FB78194678681D4B98470346002BF7D191
S2144005F001232DE07B681D4A93420AD100BFFB7859
S214400600194678681A4B98470346002BF7D10123C2
S2144006101EE07B68174A93420AD100BFFB78194612
S2144006207868134B98470346002BF7D101230FE019
S2144006307B68114A93420AD100BFFB781946786816
S2144006400B4B98470346002BF7D1012300E00023CD
S21440065018460837BD4680BD00080E407D2740003E
S214400660000A0E40001A0E40001C0E400040024099
S214400670E12940000080024000C0024080B584B0BE
S21440068000AF786039600023FB607B68344A934251
S21440069007D100BF39687868324B98470346002B2D
S2144006A0F8D17B68304A934207D100BF39687868F2
S2144006B02C4B98470346002BF8D17B682B4A934235
S2144006C007D100BF39687868264B98470346002B09
S2144006D0F8D17B68264A934207D100BF39687868CC
S2144006E0204B98470346002BF8D17B68214A93421B
S2144006F00DD100BF07F10C03194678681E4B98478A
S2144007000346002BF6D1FB68DAB23B681A707B686A
S2144007101A4A93420DD100BF07F10C031946786878
S214400720154B98470346002BF6D1FB68DAB23B6878
S2144007301A707B68124A93420DD100BF07F10C0332
S214400740194678680C4B98470346002BF6D1FB6851
S214400750DAB23B681A7000BF1037BD4680BD00BF96
S21440076000080E40AD274000000A0E40001A0E401A
S214400770001C0E4000400240132A40000080024009
S21440078000C0024080B582B000AF786039600F4A42
S2144007907B6813600E4B0F4A1A600F4B0F4A1A6065
S2144007A0396878680E4B98470E4B1B689B6800214B
S2144007B018460D4B98470B4B1B685B680021184644
S2144007C0094B984700BF0837BD4680BDA40A402065
S2144007D0A00A4020710540009C0A40207D0640004B
S2144007E00D0440000C0040204130400080B500AF72
S2144007F00B210548054B98470246054B1A60054BAA
S21440080001221A7000BF80BD00C00340A502400010
S214400810D8094020D409402080B500AF00210548C3
S214400820054B98470246054B1A60054B01221A7045
S21440083000BF80BD00C00340A5024000DC09402048
S214400840D509402080B582B000AF01210848094B49
S214400850984703467B607B680B210748074B9847C1
S2144008600548074B984700BF0837BD4680BD00BFC8
S21440087000C00040DB0B400000C00340590240006F
S2144008803D02400080B582B000AF00210848094BC9
S214400890984703467B607B6800210748074B98478C
S2144008A00548074B984700BF0837BD4680BD00BF88
S2144008B000C00040DB0B400000C00340590240002F
S2144008C03D02400090B585B000AF084B3C460FCB8C
S2144008D084E80F000E20064B98473B4619460548CD
S2144008E0054B984700BF1437BD4690BDB85E4000E4
S2144008F0C5034000008002408507400090B58BB09D
S21440090000AF2648264B984707F110031846254B5C
S214400910984707F1100319462048234B9847002173
S2144009201E48224B98470123214A0B211B48214C45
S214400930A0470123204A002118481E4CA04707F133
S2144009400C0318461D4B984700237B7307F10C0396
S2144009501A460B2111481A4B98474FF400720B2148
S2144009600E48184B98474FF4007200210B48154B21
S21440097098473B1D1846144B98473B1D1946074859
S214400980124B98470B210548114B984700210348C6
S2144009900F4B984700BF2C37BD4690BD00C0034064
S2144009A0091E4000991A4000491B4000F9014000CA
S2144009B0ED074000E11B400019084000F91A4000CE
S2144009C0BD194000D1024000191B4000511A40009A
S2144009D05902400090B58BB002AFF860B9607A60BB
S2144009E03B601E4B9847F8610123BB61BB681846C5
S2144009F01B4B9847386807F1100107F11402FB6952
S214400A0000930B46F969174CA04779683B6943F455
S214400A1080431A46F868144B984779687B69FA69A8
S214400A20B2FBF3F23B68B2FBF3F31A46F8680F4B9F
S214400A309847BB685BB218460D4B98477B681022B8
S214400A401946F8680B4B98477B681946F8680A4B76
S214400A50984700BF2437BD4690BD00BF9D03400069
S214400A6059224000FF0B4000310B40008D0B4000E8
S214400A70AD014000B30B40006B0B400098B500AF93
S214400A801A4B98471A4B98471A4B98471A4B984711
S214400A901A4B98471A481B4B9847012301221821A6
S214400AA019481A4CA0470A23002217211648174C0B
S214400AB0A0471748174B9847174B1B78DBB2002BBD
S214400AC002D0154B00221A70144B1B78DBB2002B59
S214400AD008D0134B1B6819461248134B98470F4BC8
S214400AE000221A700220114B9847E5E7A50F4000F8
S214400AF0E103400075154000C5084000FD08400071
S214400B00C85E40003130400000C00040D50940007B
S214400B1000C003403D024000D4094020D509402093
S214400B20DC094020285F4000D12E40008D23400045
S214400B3080B487B000AFF860B9607A60FA68BB6886
S214400B409B0113447B617B6902221A607B694FF0EC
S214400B50FF329A627B691B6A7B697A685A6000BF7B
S214400B601C37BD465DF8047B704780B483B000AF49
S214400B70786039607A683B689B01134405221A60A6
S214400B8000BF0C37BD465DF8047B704780B485B027
S214400B9000AFF860B9607A60FA68BB689B0113449E
S214400BA01C337A681A6000BF1437BD465DF8047B74
S214400BB0704780B487B000AFF860B9607A60FA6872
S214400BC0BB689B0113447B617B697A685A6200BFAD
S214400BD01C37BD465DF8047B704780B485B000AFD7
S214400BE0786039607A683B689B011344FB60FB6819
S214400BF01B6A18461437BD465DF8047B704780B4C0
S214400C008DB000AFF860B9607A603B6002233B610C
S214400C1008237B612023BB618023FB61BB6BDB0B1E
S214400C203B620023FB621AE0FB6A9B0007F130023E
S214400C30134453F8203CBA68B2FBF3F3BB62BB6A7A
S214400C401B0C7B62FA68BB6A9A4201D9002323E0F8
S214400C50FA687B6A9A4206D2FB6A0133FB62FB6AF9
S214400C60042BE1D900E000BFFB6A042B01D9002326
S214400C7012E07B68002B08D0FB6A9B0007F130022D
S214400C80134453F8202C7B681A603B68002B02D034
S214400C903B68FA6A1A60012318463437BD465DF849
S214400CA0047B704780B582B000AF78607B68072BC6
S214400CB031D801A252F823F0150D4000D90C40005F
S214400CC0E10C4000E90C4000F10C4000F90C4000FB
S214400CD0010D40000B0D40000020114B98471AE0D4
S214400CE001200F4B984716E000200E4B984712E025
S214400CF010200C4B98470EE020200A4B98470AE0FD
S214400D003E210020084B984705E03E210120064B37
S214400D10984700E000BF00BF0837BD4680BD00BF13
S214400D2095204000012140007121400080B582B0EE
S214400D3000AF78607B68072B26D801A252F823F0D4
S214400D40610D4000650D4000650D4000770D400088
S214400D50770D4000770D4000770D4000770D40003E
S214400D60012312E00B4B98470346002B14BF012388
S214400D700023DBB209E0084B98470346002B14BF1C
S214400D8001230023DBB200E0002318460837BD46A7
S214400D9080BD00BFCD204000E921400080B483B034
S214400DA000AF78607B68072B25D801A252F823F065
S214400DB0D10D4000D70D4000DD0D4000E30D400052
S214400DC0E70D4000EB0D4000EF0D4000F30D4000F6
S214400DD04FF4FA4310E04FF400430DE04FF4004365
S214400DE00AE0084B08E0084B06E0084B04E0074BD7
S214400DF002E0064B00E0002318460C37BD465DF87F
S214400E00047B704700093D0000127A00001BB700C3
S214400E1080B582B000AF0346FB7100BFFB79184631
S214400E20054B9847034683F00103DBB2002BF5D110
S214400E3000BF0837BD4680BD2D0D400080B586B04A
S214400E4000AFF8607A603B600B46FB727B68002B15
S214400E5007D13B68002B04D1FB684FF470021A6040
S214400E6019E0FB7A18460E4B984702467B68B2FB61
S214400E70F3F37B617B693A6802FB03F37B613B6873
S214400E80013B1A04074B13407A68D2B2134343F42B
S214400E907C52FB681A6000BF1837BD4680BD00BF55
S214400EA09D0D40000000FF0780B582B000AF78601F
S214400EB039603B68002B08D1094B9847094A7B6844
S214400EC01B6843F00053936205E0064A7B681B6844
S214400ED043F48033D36100BF0837BD4680BD00BFB2
S214400EE00522400000060E4080B582B000AF786014
S214400EF07B68002B03D1054B9847034602E0044B22
S214400F009847034618460837BD4680BD2122400014
S214400F103D22400080B582B000AF0346FB71FB79AE
S214400F20033B042B08D8FB791846064B9847FB79B9
S214400F301846054B984700E000BF00BF0837BD463F
S214400F4080BD00BFA50C4000110E400080B582B0A9
S214400F5000AF786000BF7868044B98470346002B84
S214400F60F9D0002318460837BD4680BDE90E40003C
S214400F7080B500AF0620054B9847024613469B00B7
S214400F8013449A001344184680BD00BF9D0D400090
S214400F9080B500AF024B98470346184680BD00BF59
S214400FA0710F400090B583B000AF1348134B98477D
S214400FB00620134B9847381D192301220621114C51
S214400FC0A0473B1D002118460F4B984700200F4B6B
S214400FD0984702200E4B984700200E4B98470E4BE2
S214400FE098470E4B984703461846044B984700BF11
S214400FF00C37BD4690BD00BF00A3E111112D400047
S214401000150F40003D0E4000A90E40004D0F400019
S214401010951F400011204000A92B4000910F400032
S21440102080B586B000AFF860B9607A6000237B6117
S214401030FB68002B12D04FF0FF3313E00B4B1B68BE
S2144010400B4A1268B96810469847BB680133BB60C4
S2144010507B6901337B617B68013B7B607B68002B4F
S214401060ECDC7B6918461837BD4680BD9C0A40209C
S214401070A40A402080B586B000AFF860B9607A60B8
S21440108000237B61FB68012B1ED0FB68022B1BD024
S214401090FB68032B18D04FF0FF3319E00E4B1A684D
S2144010A00E4B1868BB68591CB9601B7819469047A8
S2144010B00346002B02DA4FF0FF3309E07B69013329
S2144010C07B617B68013B7B607B68002BE6D17B695C
S2144010D018461837BD4680BDA00A4020A40A4020C6
S2144010E080B400AFBFF34F8FBFF36F8F094B002222
S2144010F0C3F85022074A074B5B6943F400335361F9
S214401100BFF34F8FBFF36F8F00BFBD465DF8047BC4
S214401110704700BF00ED00E080B48BB000AF264BB8
S214401120D3F88030FB61FB695B0BC3F30E037B6235
S214401130FB6903F007030433BB61FB69DB08C3F3B9
S21440114009037B617B69BB60BB68B3FA83F37B6052
S2144011507B68DBB203F01F033B61BFF34F8F7B69B5
S2144011603B623A6A3B6902FA03F319467A6ABB69FC
S21440117002FA03F30B43FB600F4AFB68C2F8603287
S2144011803B6A5A1E3A62002BEBD17B6A5A1E7A6241
S214401190002BE4D1BFF34F8F074A074B5B6943F4FC
S2144011A080335361BFF34F8FBFF36F8F00BF2C3731
S2144011B0BD465DF8047B704700ED00E080B582B028
S2144011C000AF78607868034B984700BF0837BD4645
S2144011D080BD00BF5922400080B500AF0A20084BB2
S2144011E098470B20064B98470C20054B98471020F5
S2144011F0034B98471120024B984700BF80BD00BF65
S214401200BD11400080B489B000AF78607B68FB6158
S214401210FB69BB61BB695A09FB697B617B6903F06B
S2144012201F03012101FA03F33A61FB603B69BB608F
S214401230BA68064B13445B021A46FB68536000BF0D
S2144012402437BD465DF8047B704700BF0707200083
S21440125080B48DB000AF786039607B68FB623B68D5
S214401260BB62FB6A7B627B6A5A09FB6A3B623B6AEB
S21440127003F01F03012101FA03F3FA61BB61BB6A65
S2144012807B61FB693B613A69374B13445B02FB6009
S2144012907B6903F00803002B03D0FB68BA695A66E3
S2144012A002E0FB68BA691A667B6903F01003002BFC
S2144012B004D0FB68BA69C3F8942003E0FB68BA69B7
S2144012C0C3F890207B6903F02003002B03D0FB6813
S2144012D0BA691A6502E0FB68BA695A657B6903F029
S2144012E0C003002B03D0FB68BA691A6202E0FB68B1
S2144012F0BA695A627B6903F08003002B04D0FB680E
S214401300BA69C3F8842003E0FB68BA69C3F8802052
S2144013107B6903F00103002B06D0FB681A6FBB699C
S2144013201A43FB681A6706E0FB681A6FBB69DB4323
S2144013301A40FB681A677B6903F00203002B06D04D
S214401340FB685A6FBB691A43FB685A6706E0FB683E
S2144013505A6FBB69DB431A40FB685A6700BF343795
S214401360BD465DF8047B70470707200080B48DB00B
S21440137000AF78600B46FB707B68FB62FB7887F8B3
S2144013802B30FB6A7B627B6A3B623B6A5B09FB6194
S214401390FA69174B13445B02BB6197F82B30012B5D
S2144013A009D1FB6A7B617B6903F01F0301229A40E7
S2144013B0BB691A610CE097F82B30002B08D1FB6A0A
S2144013C03B613B6903F01F0301229A40BB695A61A7
S2144013D0FB6AFB60FB6803F01F0301229A40BB696F
S2144013E0C3F8A02000BF3437BD465DF8047B704785
S2144013F00707200080B48BB000AF78600B46FB70C8
S2144014007B687B62FB7887F823307B6AFB61FB69ED
S214401410BB61BB695B097B617A69104B13445B0215
S2144014203B6197F82330002B09D07B6AFB60FB6852
S21440143003F01F0301229A403B691A6308E07B6A67
S214401440BB60BB6803F01F0301229A403B695A63A6
S21440145000BF2C37BD465DF8047B70470707200069
S21440146080B48DB000AF78600B46FB707B68FB6243
S214401470FB7887F82B30FB6A7B627B6A5A09FB6AEB
S2144014803B623B6A03F01F03012101FA03F3FA6152
S214401490BB6197F82B30FB75FB693B613A69234B80
S2144014A013445B02FB60FB7D013B032B2ED801A25D
S2144014B052F823F0E9144000FB144000C5144000E5
S2144014C0D7144000FB68BA69C3F8C420FB68BA6901
S2144014D0C3F8D0201FE0FB68BA69C3F8C420FB6895
S2144014E0BA69C3F8D42016E0FB68BA69C3F8C020CE
S2144014F0FB68BA69C3F8D0200DE0FB68BA69C3F848
S214401500C020FB68BA69C3F8D42004E0FB68BA6917
S214401510C3F8B42003E0FB68BA69C3F8B02000BF44
S2144015203437BD465DF8047B704700BF0707200090
S21440153080B400AFBFF34F8FBFF36F8F0C4A0C4B96
S214401540D3F8903223F00103C2F89032084A084B91
S214401550D3F8943223F00103C2F89432BFF34F8F8E
S214401560BFF36F8F00BFBD465DF8047B704700BF7A
S21440157000ED00E080B500AF1E4B4FF400425A60CD
S2144015801D4B98471D4B98471D4B1E4A5A601C4B97
S2144015901D4A5A601D4B98471D4B984701214820CD
S2144015A01C4B9847012148201B4B984700210B2095
S2144015B0184B984788210B20184B984702210B2040
S2144015C0174B984700211520144B98471520154B6C
S2144015D09847154A144BD3F8143143F01003C2F819
S2144015E01431032124200D4B984724200D4B984757
S2144015F000BF80BD50180E40E11040001911400059
S214401600000C0E400C08005A0C07005A31154000DA
S214401610D91140006D134000F513400051124000B0
S21440162061144000051240000080084080B483B03A
S21440163000AF0346FB71094997F907305B09FA7911
S21440164002F01F02012000FA02F241F8232000BFF8
S2144016500C37BD465DF8047B704700BF00E100E0F4
S21440166080B483B000AF0346FB71094997F9073051
S2144016705B09FA7902F01F02012000FA02F2603399
S21440168041F8232000BF0C37BD465DF8047B704709
S21440169000E100E080B483B000AF03463960FB71E0
S2144016A097F90730002B0BDA0D49FB7903F00F034F
S2144016B0043B3A68D2B25201D2B20B441A7609E0E1
S2144016C0084997F907303A68D2B25201D2B20B4471
S2144016D083F8002300BF0C37BD465DF8047B704797
S2144016E000ED00E000E100E080B483B000AFEFF32F
S2144016F010837B607B68002B0CBF01230023DBB28A
S2144017003B6072B6BFF35F8F044B00221A703B6893
S21440171018460C37BD465DF8047B704700004020F5
S21440172080B483B000AF78607B68002B14BF012381
S2144017300023DBB218460C37BD465DF8047B704785
S21440174080B582B000AF78607868074B984703460C
S214401750002B05D0054B01221A70BFF35F8F62B68F
S21440176000BF0837BD4680BD21174000000040201E
S21440177080B483B000AF78600B467B8000BF0C37E8
S214401780BD465DF8047B704780B483B000AF786098
S2144017907B681B6B18460C37BD465DF8047B70476C
S2144017A080B483B000AF78607B68DB6A18460C373D
S2144017B0BD465DF8047B704780B584B000AF0346F5
S2144017C0FB71FB790A4AD35CFF2B00D1FEE7094B3D
S2144017D09847F860FB79064AD25C0132D1B2044A97
S2144017E0D154F868044B984700BF1037BD4680BDBB
S2144017F0940A4020E91640004117400080B483B068
S21440180000AF78607B68072B25D801A252F823F0FA
S21440181031184000371840003D184000431840003B
S214401820471840004B1840004F18400053184000DF
S2144018304FF4FA4310E04FF400430DE04FF40043FA
S2144018400AE0084B08E0084B06E0084B04E0074B6C
S21440185002E0064B00E0002318460C37BD465DF814
S214401860047B704700093D0000127A00001BB70059
S21440187080B500AF0620054B9847024613469B00AE
S21440188013449A001344184680BD00BFFD1740001D
S21440189080B500AF024B98470346184680BD00BF50
S2144018A07118400080B483B000AF78607B68094A06
S2144018B0934201D1012306E07B68074A934201D157
S2144018C0002300E0002318460C37BD465DF8047B35
S2144018D0704700BF0040064000C0034080B483B05D
S2144018E000AF78607B68094A934201D1282306E01E
S2144018F07B68074A934201D11D2300E01D2318460A
S2144019000C37BD465DF8047B704700BF004006407C
S21440191000C0034080B485B000AF786039600023D3
S214401920FB603B68DB7C002B02D04FF0004200E0BF
S21440193000223B6859683B689B68B1FBF3F3013B68
S2144019401B029BB21A433B681B7C1B0603F070636A
S2144019501A433B685B7C1B0703F040531A433B68C3
S214401960DB68134343F40003FB607B68FA685A6005
S2144019703B681B7D002B02D04FF0807200E00022B7
S2144019803B681B681A433B685B7D002B02D04FF0D8
S214401990007300E000231A437B689A603B689B7D97
S2144019A01B0203F4407343F00C027B68C3F8942098
S2144019B000BF1437BD465DF8047B704780B586B0DF
S2144019C000AFF8600B467A607B817B891946F868E1
S2144019D01E4B984700237B61FB681B6E7B617B89AF
S2144019E0012202FA03F3DB437A6913407B617B688A
S2144019F01B78002B04D07B89012202FA03F300E017
S214401A0000237A6913437B61FB687A691A66FB6830
S214401A105B6D7B617B895B00032202FA03F3DB4349
S214401A207A6913407B617B685B781A467B895B00EA
S214401A3002FA03F31A467B6913437B61FB687A69B3
S214401A405A6500BF1837BD4680BD00BF71174000BD
S214401A5080B485B000AF786039600023FB603B6897
S214401A601B78002B01D0012300E000233A6852780F
S214401A701343FB607B68FA681A673B685B881A46C4
S214401A803B689B881B041A437B685A6700BF143721
S214401A90BD465DF8047B704780B582B000AF786085
S214401AA07B6800221A60124B984702467B685A6051
S214401AB07B68104A9A607B684FF48022DA607B68C5
S214401AC002221A747B6801225A747B6801229A7437
S214401AD07B680022DA747B6801221A757B680122D3
S214401AE05A757B6801229A7500BF0837BD4680BD8F
S214401AF091184000808D5B0080B483B000AF786062
S214401B007B6800221A707B6801225A7000BF0C372F
S214401B10BD465DF8047B704780B483B000AF786004
S214401B207B6800221A707B6820225A707B68FF22EE
S214401B305A807B6840F6FF729A8000BF0C37BD46DD
S214401B405DF8047B7047000080B584B000AF7860D5
S214401B50396078681D4B9847034603F08073B3F1AD
S214401B60807F01D119232CE07B6801221A603968F6
S214401B707868174B98477B68164A93420DD10023E6
S214401B80FB6007E0144AFB68002142F82310FB681C
S214401B900133FB60FB680F2BF4D97B680F4A9342F6
S214401BA00ED10023FB6008E00B4AFB68103300218F
S214401BB042F82310FB680133FB60FB680F2BF3D918
S214401BC0002318461037BD4680BD00BF8917400029
S214401BD01519400000C00340A80A402000400640B7
S214401BE080B586B000AFF860B9607A60FB70F86880
S214401BF0174B9847786117497B691A01BB681344AD
S214401C007A6841F823207B69002B0BD11D20124BAC
S214401C109847FB7819461D20104B98471D20104BBF
S214401C2098470DE07B69012B0AD128200A4B98473C
S214401C30FB7819462820094B98472820084B984798
S214401C40B968F868074B984700BF1837BD4680BD4F
S214401C50A5184000A80A402061164000951640008E
S214401C602D164000691C400080B483B000AF7860F9
S214401C7039603B68194A934203D17B68174A5A62D7
S214401C8026E03B680B2B0FD83B680B2B04D17B68B8
S214401C904FF400625A621BE001223B6802FA03F3EB
S214401CA01A467B685A6213E03B680E2B08D83B689E
S214401CB00C33012202FA03F31A467B685A6207E0A5
S214401CC03B680F33012202FA03F31A467B685A62D6
S214401CD00C37BD465DF8047B704700BFFF0F0047DA
S214401CE080B582B000AF03463960FB71FB790A4984
S214401CF01A013B68134451F82330002B07D0FB7978
S214401D0005491A013B68134451F82330984700BFF1
S214401D100837BD4680BD00BFA80A402090B587B0B2
S214401D2000AF78607868284B984704467868274B19
S214401D30984703462340FB607868254B98473861B0
S214401D4000237B6139E07B690B2B0FD801227B692E
S214401D5002FA03F31A46FB681340002B2AD03B696D
S214401D60DBB2796918461B4B984723E07B690E2BFC
S214401D7010D87B690C33012202FA03F31A46FB683B
S214401D801340002B16D03B69DBB279691846114BDD
S214401D9098470FE07B690F33012202FA03F31A4695
S214401DA0FB681340002B05D03B69DBB279691846C7
S214401DB0084B98477B6901337B617B690F2BC2D9FF
S214401DC000BF1C37BD4690BD89174000A117400094
S214401DD0A5184000E11C400080B500AF0248034B08
S214401DE0984700BF80BD00BF00C003401D1D400097
S214401DF080B500AF0248034B984700BF80BD00BF88
S214401E00004006401D1D400080B584B000AF78609D
S214401E107868064B9847F860F868054B9847022064
S214401E20044B984700BF1037BD4680BDDD184000C4
S214401E3059224000B917400080B483B000AF7860A4
S214401E407B68DB6C18460C37BD465DF8047B7047F4
S214401E5080B483B000AF78607B689B6C18460C37C4
S214401E60BD465DF8047B704780B584B000AF7860AF
S214401E7039607868264B9847F8607868254B9847CD
S214401E800246FB681340FB60FB68002B3CD00023F7
S214401E90BB6034E0204ABB681B0113441A683B68A9
S214401EA09A4226D11C4ABB681B01134404331A6865
S214401EB0FB681340002B1CD0174ABB681B01134419
S214401EC00C331B681449BA6812010A441068124958
S214401ED0BA6812010A4404321268114698470E4AFC
S214401EE0BB681B01134404331B68DB43FA6813408A
S214401EF0FB60BB680133BB60BB68062B03D8FB683E
S214401F00002BC7D100E000BF00BF1037BD4680BDE4
S214401F10391E4000511E4000E009402080B500AF09
S214401F200A210248024B984700BF80BD000E0E4073
S214401F30691E400080B500AF0B210248024B98470F
S214401F4000BF80BD00100E40691E400080B500AF47
S214401F500C210248024B984700BF80BD00120E403D
S214401F60691E400080B500AF10210248024B9847DA
S214401F7000BF80BD00140E40691E400080B500AF13
S214401F8011210248024B984700BF80BD00160E4004
S214401F90691E400080B483B000AF78607B68013B28
S214401FA0032B1AD801A252F823F000BFBD1F4000F1
S214401FB0C31F4000CB1F4000D31F400000237B6060
S214401FC00EE04FF480737B600AE04FF440737B6012
S214401FD006E04FF400737B6002E000237B6000BFA6
S214401FE00A490A4B1B6B23F440727B6813430B630E
S214401FF000BF064B9B6E03F00803002BF9D000BFD2
S2144020000C37BD465DF8047B704700BF00060E40A7
S21440201080B485B000AF78601D491D4B1B6B23F024
S21440202070027B6813430B634FF48053FB6007E0FA
S214402030FB68002B01D1012323E0FB68013BFB60DA
S214402040134B9B6E03F00803002BF1D0104A104B45
S2144020501B6B23F0030343F0020313634FF48053D8
S214402060FB6007E0FB68002B01D1012309E0FB6819
S214402070013BFB60064B9B6E03F00803002BF1D040
S214402080002318461437BD465DF8047B704700BFF2
S21440209000060E4080B483B000AF78607B68012BAA
S2144020A005D10749064B9A68064B13438B60044B91
S2144020B0054A1A6000BF0C37BD465DF8047B704782
S2144020C010180E40000010A5080000A580B400AF10
S2144020D0094B5B6903F08003002B07D0074B9B6ED0
S2144020E003F08003002B01D0012300E000231846B4
S2144020F0BD465DF8047B704710180E4000060E4043
S21440210080B483B000AF78601549154B1A6A154BFA
S21440211013430B6200BF124B9B6E03F40033002B3D
S214402120F9D00F490E4B1A6A0F4B13407A68134387
S21440213043F45C130B6200BF094B9B6E03F4003301
S214402140002BF9D00649064B1A6A084B134043F455
S2144021505C130B6200BF0C37BD465DF8047B7047CE
S21440216000060E40080037008FFFC8FFFFFFC8FE7E
S21440217080B483B000AF786039607B68002B08D0AD
S2144021801349134B1B6A134A1A40134B13430B62F3
S21440219018E00F490E4B1A6A104B13403A68120269
S2144021A092B21A430E4B13430B6200BF084B9B6E12
S2144021B003F00103002BF9D00549054B1A6A094B79
S2144021C013430B6200BF0C37BD465DF8047B704777
S2144021D000060E40FCFFC8FE02003701FCFFC8FFA9
S2144021E0010037000000370180B400AF044B9B6EFF
S2144021F003F480331846BD465DF8047B704700BF45
S21440220000060E4080B400AF044B4FF000529A6276
S21440221000BFBD465DF8047B704700BF00060E4019
S21440222080B400AF044B9B6E03F002031846BD46D5
S2144022305DF8047B704700BF00060E4080B400AFD8
S214402240044B9B6E03F040031846BD465DF8047B86
S214402250704700BF00060E4080B483B000AF786081
S2144022607B683F2B01D901232FE07B681F2B13D8B7
S214402270194B9A6901217B6801FA03F31A40012140
S2144022807B6801FA03F39A421ED0134A01217B6809
S21440229001FA03F3136117E07B68203B7B600E4B2B
S2144022A0D3F8082101217B6801FA03F31A40012183
S2144022B07B6801FA03F39A4206D0074A01217B68FD
S2144022C001FA03F3C2F80031002318460C37BD4626
S2144022D05DF8047B704700BF00060E4080B483B0B4
S2144022E000AF7860044A7B68136000BF0C37BD4679
S2144022F05DF8047B704700BF0400402080B483B084
S21440230000AF204B1B6F7B607B6823F4C0037B6071
S2144023107B6843F480037B601A4A7B6813671949DD
S214402320184B1A6A184B13430B6200BF154B9B6E33
S21440233003F00803002BF9D000237B6003E000BFC6
S2144023407B6801337B607B68B3F5FA7FF7D300BFC9
S2144023500C4B1B6A03F00803002BF9D0094B1B6F8C
S2144023607B607B6823F4C0037B607B6843F4800318
S2144023707B60044A7B68136700BF0C37BD465DF838
S214402380047B704700060E400400370090B599B0B5
S21440239000AF78607B68013B042B00F2A58101A268
S2144023A052F823F0B9234000B9234000D923400017
S2144023B0D9234000C7264000724A724B1B6923F05F
S2144023C004031361704B01221A70BFF35F8F62B62D
S2144023D0BFF34F8F30BF87E17B68032B03D10020CC
S2144023E06A4B984703E04FF40010684B984772B624
S2144023F0BFF35F8F644B00221A70654B01221A7040
S2144024007B68042B0CBF01230023DAB207F11C03C0
S2144024103B6407F11803FB6307F11403BB6307F142
S21440242010037B6307F10C033B63134687F82F309A
S214402430584B1B6ABB62574B1B6B7B62564B1B68E9
S2144024403B623B6C002B02D03B6CBA6A1A60FB6B5B
S214402450002B03D04F4B9A6AFB6B1A60BB6B002B6A
S21440246002D0BB6B00221A607B6B002B02D07B6BCA
S2144024707A6A1A603B6B002B02D03B6B3A6A1A6052
S2144024804449BA6A454B13430B627B6A03F0030325
S214402490012B0ED97B6A23F0030343F001037B62D2
S2144024A03C4A7B6A13633B4B9B6E03F00803002B4E
S2144024B0F9D07B6A03F07003002B0CD07B6A23F0C4
S2144024C070037B62334A7B6A1363324B9B6E03F026
S2144024D00803002BF9D0324B98472E4B9B6E03F4E3
S2144024E00033002BF9D02B492A4B1A6A2D4B134048
S2144024F043F45C130B62274B9B6E03F48033002B34
S214402500F9D0254A3B6A23F47063136097F82F305E
S214402510002B07D01F491F4B1A6A234B134043F426
S2144025205C130B62184B01221A70BFF35F8F62B6C2
S2144025301E4B984772B6BFF35F8F134B00221A703C
S214402540FC69B86979693A69FB68FC65B86579657C
S2144025503A65FB640023BB64FB6D03F00203002B6B
S2144025602CD00C490B4B1B6A114A1A40114B134393
S2144025700B620849074B1A6A0F4B134043F45C132F
S2144025800B624EE000ED00E000004020DD224000FF
S214402590500A402000060E40000C0E40080037004F
S2144025A005224000FFFFC8FEFEFFC8FFFD22400098
S2144025B0FCFFC8FE0200370187FFC8FFFB6D03F033
S2144025C00103002B2DD04A4B1B6A03F00103002B5E
S2144025D00DD14749464B1B6A464A1A40464B134361
S2144025E00B62434B9B6E03F00103002BF9D0404B2C
S2144025F01B6A03F08073002B0BD13D493C4B1A6A93
S2144026003E4B13430B623A4B9B6E03F48033002BD6
S214402610F9D03749364B1A6A394B134043F45C13AA
S2144026200B62BA6D374B1340002B08D0304ABB6D57
S21440263043F000539362BB6C43F00203BB643B6DB4
S21440264003F00303022B05D1294B9B6E03F00203D4
S214402650002BF9D0264B1B6B7B6425497B6C23F003
S21440266070023B6D03F0700313430B63204B9B6E6D
S21440267003F00803002BF9D0234AFB6C13601C4A76
S2144026803B6D13631A4B9B6E03F00803002BF9D087
S214402690174B9A6EBB6C1340002BF9D01B4B002295
S2144026A01A701B4B1B68002B05D0194B1B689847AC
S2144026B0174B00221A60174B01221A70BFF35F8F28
S2144026C062B600BF10E0144A134B1B6943F0040384
S2144026D01361124B124A1A600E4B01221A70BFF356
S2144026E05F8F62B630BF00BF00BF6437BD4690BD47
S2144026F000060E40FCFFC8FF01003700000037010F
S21440270087FFC8FF0000FF07000C0E40500A40201D
S214402710540A40200000402000ED00E010180E4013
S214402720040000A580B485B000AF7860396000230F
S214402730FB607B68AC221A603B681A683B685B6843
S214402740B2FBF3F31B09FB60FB68002B03D0FB686E
S214402750B3F5803F01D301230AE07B68FA681A622A
S2144027603B689A687B685A607B6850221A600023F0
S21440277018461437BD465DF8047B704780B483B076
S21440278000AF78600B46FB707B685B6903F0020322
S214402790002B01D1012303E0FA787B68DA6100233D
S2144027A018460C37BD465DF8047B704780B483B04E
S2144027B000AF786039607B685B6903F00103002BEB
S2144027C001D1012305E07B689B69DAB23B681A7049
S2144027D0002318460C37BD465DF8047B704780B42E
S2144027E089B000AFF860B9607A60BB681A017B6850
S2144027F09A4202D81023FB6101E00823FB617B6804
S214402800DA00FB69B96801FB03F35B081A44FB690D
S214402810B96801FB03F3B2FBF3F3BB61BB69DB08AA
S2144028207B61BB6903F007033B617B69002B03D0E8
S2144028307B69B3F5803F01D301230FE0FB69082B8A
S21440284005D1FB685B6843F40022FB685A603B692D
S2144028501A047B691A43FB681A6200231846243719
S214402860BD465DF8047B704780B582B000AF7860A7
S21440287078680D4B98477B6800225A607B68002238
S2144028805A627B6800229A627868084B9847786854
S214402890074B98477868074B98477868064B9847A1
S2144028A000BF0837BD4680BD492A40005B2940002E
S2144028B08F294000A9294000C529400080B584B032
S2144028C000AFF860B9607A60F8681A4B98471A4BC0
S2144028D000221A60BB68002B09D0BB681B687A6868
S2144028E01946F868154B98470346002B01D001233C
S2144028F01BE0BB685A68BB689B681A43BB681B6989
S2144029001A43BB68DB681A430B4B1B6813430A4ADF
S2144029101360094B1B68084A1360FB685A68064BED
S2144029201B681A43FB685A60002318461037BD469A
S21440293080BD00BF69284000580A4020DF2740007D
S21440294080B483B000AF78607B6840221A6000BFD6
S2144029500C37BD465DF8047B704780B483B000AF4B
S21440296078607B6888221A6000BF0C37BD465DF8E9
S214402970047B704780B483B000AF78607B681022D9
S2144029801A6000BF0C37BD465DF8047B704780B4C4
S21440299083B000AF78607B6824221A6000BF0C3793
S2144029A0BD465DF8047B704780B483B000AF786066
S2144029B07B684FF480721A6000BF0C37BD465DF8E6
S2144029C0047B704780B483B000AF78607B684FF478
S2144029D000221A6000BF0C37BD465DF8047B704786
S2144029E080B483B000AF786039607B685B6903F081
S2144029F00203002B01D1012305E03B68C3F3080224
S214402A007B68DA61002318460C37BD465DF8047BC8
S214402A10704780B483B000AF786039607B685B698C
S214402A2003F00103002B01D1012306E07B689B697C
S214402A30C3F308023B681A60002318460C37BD46AD
S214402A405DF8047B7047000080B483B000AF7860C8
S214402A507B68044AC3F8E42000BF0C37BD465DF8E7
S214402A60047B70470041535580B483B000AFEFF30A
S214402A7010837B607B68002B0CBF01230023DBB2F6
S214402A803B6072B6BFF35F8F044B00221A703B6800
S214402A9018460C37BD465DF8047B70470000402062
S214402AA080B483B000AF78607B68002B14BF0123EE
S214402AB00023DBB218460C37BD465DF8047B7047F2
S214402AC080B582B000AF78607868074B9847034679
S214402AD0002B05D0054B01221A70BFF35F8F62B6FC
S214402AE000BF0837BD4680BDA12A400000004020F8
S214402AF080B584B000AF1E4BFB601E4BBB60FA68CF
S214402B00BB689A420CD007E0BB681A1DBA60FA68E8
S214402B10111DF96012681A60BB68174A9342F3D3D6
S214402B20164BBB6004E0BB681A1DBA6000221A60F0
S214402B30BB68134A9342F6D3124BFB60124AFB68BB
S214402B4023F07F039360114B98477860104A104BF0
S214402B501B6843F470031360BFF34F8FBFF36F8F50
S214402B6078680C4B98470C4B98470C4B9847FEE7B9
S214402B70CC60400000004020B8094020B809402002
S214402B80500B40200000400000ED00E0692A400065
S214402B9088ED00E0C12A4000812E40007D0A4000BA
S214402BA080B400AFFEE7000080B400AF524B1B6B12
S214402BB003F00303012B14D0012B02D3022B38D091
S214402BC07AE04E4B5B6903F08003002B04D04C4BFD
S214402BD04FF400421A606FE0494B4FF4FA421A60D5
S214402BE06AE0454B1B6A03F08073002B03D0444BCE
S214402BF0444A1A6060E0424B434A1A603E4B1B6AA6
S214402C0003F07003102B04D0202B08D0002B0ED0DE
S214402C100EE03B4B1B685B00394A136008E0384BBC
S214402C201A6813465B001344354A136000E000BF41
S214402C3042E0314B1B6A03F08073002B03D0304BCD
S214402C40304A1A601CE02E4B2F4A1A602A4B1B6AE9
S214402C5003F07003102B04D0202B08D0002B0ED08E
S214402C600EE0274B1B685B00254A136008E0244BA8
S214402C701A6813465B001344214A136000E000BF05
S214402C801D4B1B6B03F00303022B14D11A4B9B6A9C
S214402C901B0CC3F30A030133194A126802FB03F301
S214402CA0174A1360144B9B6ADBB2154A1268B2FB94
S214402CB0F3F3134A136000BF0F4B1B6B03F0700314
S214402CC0702B08D10E4B1B68104AA2FB03235B08EF
S214402CD00B4A13600AE0084B1B6B1B0903F0070303
S214402CE0074A126822FA03F3054A136000BFBD463E
S214402CF05DF8047B704700BF00060E4010180E407B
S214402D0008004020001BB70000093D00ABAAAAAA55
S214402D1080B483B000AF78607B681D4A934204D885
S214402D201C4B4FF080621A602BE07B681A4A934235
S214402D3003D8184B194A1A6023E07B68184A934216
S214402D4003D8144B174A1A601BE07B68164A934216
S214402D5003D8104B154A1A6013E07B68144A934216
S214402D6004D80C4B4FF004221A600AE07B68114AE4
S214402D70934203D8074B104A1A6002E0054B0F4AAD
S214402D801A6000BF0C37BD465DF8047B704700BF35
S214402D90BFF35E01000C0E407FE7BD020001000459
S214402DA03FDB1C0400020004FFCE7B05000300044A
S214402DB0BFC2DA067FB639080005000400060004E4
S214402DC080B485B000AF7860104BFB60104B1B683A
S214402DD0002B02D10E4B0F4A1A600D4B1B68BB608E
S214402DE0BA687B681A44FB689A4202DD4FF0FF33AC
S214402DF006E0074B1A687B681344054A1360BB68B5
S214402E0018461437BD465DF8047B7047FCFF4520E6
S214402E105C0A4020502D402080B483B000AF7860DC
S214402E204FF0FF3318460C37BD465DF8047B7047BD
S214402E3080B483B000AF786039603B684FF400528E
S214402E405A60002318460C37BD465DF8047B704731
S214402E5080B483B000AF7860012318460C37BD4677
S214402E605DF8047B704780B485B000AFF860B96009
S214402E707A60002318461437BD465DF8047B7047D9
S214402E8070B50F4E0F4D761BB61018BF002405D0F8
S214402E90013455F8043B9847A642F9D10A4E0B4DEB
S214402EA0761B03F0FDF8B61018BF002406D0013498
S214402EB055F8043B9847A642F9D170BD70BD00BF97
S214402EC0AC604000AC604000B4604000AC60400085
S214402ED00FB400B5074983B004AB086853F8042B19
S214402EE08168019300F03AFA03B05DF804EB04B051
S214402EF0704700BF0C00402070B4860746D0541E72
S214402F00002A41D0CAB2034602E014F1FF343BD354
S214402F1003F8012B9D07F8D1032C2ED9CDB245EAF4
S214402F2005250F2C45EA054519D903F1100226461A
S214402F30103E0F2E42F8105C42F80C5C42F8085CDB
S214402F4042F8045C02F11002F2D8A4F1100222F01A
S214402F500F0204F00F041032032C13440DD91E4602
S214402F602246043A032A46F8045BFAD8221F22F087
S214402F7003020432134404F003042CB1C9B21C44C7
S214402F8003F8011B9C42FBD170BC704714460346B5
S214402F90C2E700BFF0B5054689B008460C4600F0CB
S214402FA02FF9AB6B214F04940126441C04A902223E
S214402FB003940590AC68069707960191029253B326
S214402FC0636E13F0010FB4F90C309AB201D190053C
S214402FD025D5910406D4626E43F4005322F4005281
S214402FE0A3816266284601AA214601F0B9FB636EBA
S214402FF000280CBF0A254FF0FF35DA0702D4A38914
S2144030009B0502D5284609B0F0BDA06D01F05EFDD7
S214403010284609B0F0BD284601F096F9D0E7A06DE5
S21440302001F052FDB4F90C309AB2D2E7385F400056
S214403030024B01461868FFF7ADBF00BF0C004020AA
S21440304000290CBF022200224FF4806300F000B833
S2144030502DE9F043614C256883B004460F46904600
S2144030601E4615B1AB6B002B64D0B8F1020F06D0EC
S214403070B8F1010F00F29F80002EC0F29C80636E74
S214403080D80734D52146284601F006F9216B41B1D0
S21440309004F14003994202D0284601F07BFA00230F
S2144030A02363B4F90C300022A26162601A063AD457
S2144030B023F44A6323F00303B8F1020FA3811DD023
S2144030C001AB6A462146284601F002FDA389184313
S2144030D0A081002E32D1009E304601F071FD074699
S2144030E000286BD0A38943F08003A38128E0A389FE
S2144030F09905C7D4A06D01F0E7FCC3E70025616ED3
S214403100002604F1430243F002030120A660CE07E6
S214403110A38122602261606101D498053ED528468D
S21440312003B0BDE8F0832169284601F033FAB4F9CC
S2144031300C30BDE7284601F007F996E7002FCBD0C4
S214403140AB6B002B33D0009BB4F90C2027609E421B
S2144031501CBF42F40062A281B8F1010F04BF42F0E6
S2144031600102A28192B212F00803276166610ED076
S214403170D1071AD5656E7642002315F00105A66183
S214403180A36009D00025284603B0BDE8F083A360BD
S214403190656E15F00105F5D19305C0D4A06D01F01C
S2144031A095FC284603B0BDE8F083A660F0E72846C5
S2144031B001F0CAF8C7E74FF0FF35B0E7DDF80090FA
S2144031C0B14504D0484601F0FBFC074620B9B4F9A7
S2144031D00C304FF0FF3592E74E4683E70C00402018
S2144031E0000000000000000000000000000000009A
S2144031F0000000000000000000000000000000008A
S21440320090F800F06DE9024520F007016FF0000CE1
S21440321010F0070491F820F040F049804FF0000489
S2144032206FF00700D1E9002391F840F000F1080064
S21440323082FA4CF2A4FA8CF283FA4CF3A2FA8CF39C
S2144032404BBBD1E9022382FA4CF200F10800A4FA03
S2144032508CF283FA4CF3A2FA8CF3E3B9D1E9042357
S21440326082FA4CF200F10800A4FA8CF283FA4CF38E
S214403270A2FA8CF37BB9D1E9062301F1200182FA48
S2144032804CF200F10800A4FA8CF283FA4CF3A2FA4E
S2144032908CF3002BC6D0002A04BF04301A4612BA5C
S2144032A0B2FA82F2FDE8024500EBD2007047D1E95F
S2144032B0002304F00305C4F100004FEAC50514F0EE
S2144032C0040F91F840F00CFA05F562EA05021CBFBF
S2144032D063EA050362464FF00004A9E72DE9F84F7C
S2144032E04B6E9C0493462FD59368126853B30E4694
S2144032F0074602F1080919E920045FEA9A0817D040
S214403300043D002401E0A04510D0324655F8041F85
S214403310384601F0BBF8431C04F10104F3D1002306
S214403320CBF80830CBF80430BDE8F88FDBF808302F
S2144033302AF0030AA3EB0A03CBF8083009F1080980
S214403340002BD8D10020EAE701F00AFA0023CBF898
S2144033500830CBF80430BDE8F88F00BF2DE9F04FB9
S214403360ADB01D468B4690460793069018B1836BCA
S214403370002B00F0F380DBF86430BBF90C00DF076D
S21440338081B202D48E0540F1FC808C040AD4DBF86E
S214403390643040F4005123F40053ABF80C10CBF8E3
S2144033A0643089B2080740F1B380DBF81030002B58
S2144033B000F0AE8001F01A030A2B00F0B58000231F
S2144033C00DF170090B93119310930393CDF83C9035
S2144033D0CA46CDF810B098F800304446FBB1252BCD
S2144033E002D11CE0252B03D014F8013F002BF9D165
S2144033F0A4EB08059DB1109B119ACAF800800133D2
S2144034002A44072BCAF80450119210937ADD002AFA
S21440341040F0B084039B10922B44CA460393237813
S214403420002B00F0E08300204FF000038DF837308B
S21440343004F1010862780546064603464FF0FF341D
S21440344008F10108A2F12001582900F2DE82DFE8E7
S21440345011F02102DC02DC022902DC02DC02DC0282
S214403460DC02DC02DC0289029502DC02A200BD021C
S214403470DC029F01A401A401A401A401A401A401AB
S214403480A401A401A401DC02DC02DC02DC02DC02B2
S214403490DC02DC02DC02DC02DC02B201DC02DC0222
S2144034A0DC02DC02DC02DC02DC02DC02DC02DC02E7
S2144034B09701DC02DC02DC02DC02DC029B01DC025F
S2144034C0DC025302DC02DC02DC02DC02DC02DC0250
S2144034D0DC02DC02DC02DC025A021B02DC02DC02FA
S2144034E0DC026E021B02DC02DC027302DC02F50127
S2144034F082010902D702DC029A02DC02A700DC0243
S214403500DC022E020AF1080A039B2B44039386E74B
S2144035105946069800F0ACFD18BBBBF80C1001F0FD
S2144035201A030A2B7FF44BAFBBF90E30002BFFF685
S21440353046AFDBF86430DB0705D48F0503D4DBF8F1
S214403540580001F0C3FA2B4642465946069800F00A
S2144035504DFD039003982DB0BDE8F08F00F0F4FECB
S21440356009E7DBF86430D90704D4BBF80C309A0579
S21440357040F1AA844FF0FF33039303982DB0BDE883
S214403580F08FDBF8580001F09FFABBF90C0081B2CF
S214403590FBE67642079243F0040398F800204FE794
S2144035A008969E0600F150840799DD060A4600F10B
S2144035B0EF83580640F1EC830E8804310027012241
S2144035C007914FF000018DF837100025611C00F080
S2144035D0168123F08001029156EA070140F01481DB
S2144035E0002C40F05C83002A40F0B78313F00103C0
S2144035F0059300F057840DF1B00B30230BF8413D96
S214403600059BA342B8BF234601930DB101330193F6
S214403610029B13F00203099302D0019B02330193ED
S214403620029B13F084030A9340F01782089B019A8A
S2144036309D1A002D40F31182102D40F39084109B6C
S214403640119AC44ED6461027A2461946069C07E055
S21440365001F1020C0EF1080E0146103D102D11DD51
S214403660481C1032072811928EE8C0001090EFDDFB
S214403670002A40F0E481103D102D11464FF0010C19
S214403680CE46EDDC54466146F2462A44072911925E
S214403690CAF80060CAF80450109100F3EC829DF816
S2144036A037500AF1080A481C002D40F0DE81099B7D
S2144036B0002B00F0F88102320EA90223072811924F
S2144036C010908AE80A0040F3EA81002A40F08C8392
S2144036D00A9B802B4FF001001146CA4640F0E78116
S2144036E0089B019D5E1B002E40F3E181102E9A4DF3
S2144036F040F35084D4461027A246069C07E001F1CA
S214403700020E0CF1080C0146103E102E11DD481C2E
S2144037101032072811928CE8A0001090EFDD002AA6
S21440372040F09D82103E102E4FF0010E1146CC46C2
S214403730EDDC5446E2463244BEF1070F11928AE869
S2144037406000CDF840E000F369830AF1080A0EF104
S21440375001007146ABE1089613F0200240F08C83DE
S21440376013F0100140F01A8313F0400200F0168365
S21440377007980A460146043106880791002720E745
S214403780089643F01003E7E7089643F0100308E76F
S21440379043F0800398F8002052E6A2F1300100265C
S2144037A018F8012B06EB860601EB4606A2F130011F
S2144037B00929F5D946E60896002840F0088443F0E3
S2144037C010039E0600F14C83DD0600F1F382580696
S2144037D040F1F082079DB5F900602A46F71704329B
S2144037E0304639460792002871F10002C0F25D83E8
S2144037F0611C9DF837504FF001027FF4EAAE56EA5E
S214403800070100F04D820293012A00F08C82022AC2
S21440381040F05C820B98CB46330906F00F0143EA32
S21440382007733A091E461746435C0BF8013D56EAB5
S2144038300703F1D1A9EB0B030593E1E6002840F01E
S214403840C083990600F16783DA0600F1F1805B06D3
S21440385040F1EE80079A136804320792BDF80C20B8
S2144038601A80B8E507983D4A08960B920668782273
S214403870302104308DF8392043F0020307900027AA
S2144038808DF8381002229CE60896002899D08DF8CC
S214403890375096E798F80020002D7FF4D1AD0120F0
S2144038A02025CDE543F0010398F80020C8E50896AA
S2144038B0002840F0938329490B919F0600F1E88247
S2144038C00798DE06014600F170825D0640F16D8283
S2144038D00431068807910027D80740F1228256EA2D
S2144038E0070100F01E8230218DF8392043F0020394
S2144038F08DF83810022264E60896002840F06B8364
S21440390017490B91D9E7079908960A688DF8482019
S2144039104FF000000A468DF837000432012001902F
S214403920079205900DF1480B0293002470E643F091
S214403930400398F8002083E598F800206C2A03BFDF
S21440394098F8012043F0200308F1010843F01003E3
S21440395076E500BF6C5F40007C5F4000505F4000F3
S2144039603C5F400007990E680A46002E02F10402AA
S214403970FFF60FAE079298F8002061E598F8002011
S21440398001202B255CE507990896D1F800B04FF04A
S21440399000028DF837200E1DBBF1000F00F0E582C7
S2144039A0671C00F0C482224600215846019301F06D
S2144039B0D7FB019B002800F0E582A0EB0B020592A6
S2144039C0079602939DF83750002419E698F8002091
S2144039D02A2A08F1010700F0E982A2F130010929FC
S2144039E0B8464FF000043FF62DAD18F8012B04EB17
S2144039F0840401EB4404A2F130010929F5D921E5FC
S214403A0043F0200398F800201AE50896002840F076
S214403A10DB82002A00F0E78001218DF848204FF035
S214403A20000201918DF8372005910DF1480B7BE798
S214403A30079A136804320792039A1A60CBE40FAAD7
S214403A4004992046FFF74AFC002840F03981109937
S214403A50119A01F1010CCE46FFE51099119A481CC7
S214403A609DF83750002D3FF422AE01320DF1370558
S214403A700121072811921090CAF80050CAF8041085
S214403A8040F30881002A40F0BC81099B002B3FF49C
S214403A901FAE0EAB022208461C931D92CA46014634
S214403AA00AF1080A01300A9B802B3FF419AE059BA9
S214403AB0E41A002C2EDD102CB34D1EDDD646102603
S214403AC0069FDDF810A006E0881C0EF1080E194689
S214403AD0103C102C10DD4B1C1032072B11928EE838
S214403AE060001093F0DD002A65D1103C102C4FF09A
S214403AF001001146CE46EEDCF246224407281192DB
S214403B00CAF80050CAF80440109000F385800AF1C5
S214403B10080A01300599CAF800B00A4407281192ED
S214403B20CAF80410109040F38280002A40F01881B2
S214403B30029B1092580735D5089B01995C1A002CB9
S214403B4040F3E780CA46102C40F3188210998F4EF7
S214403B50069FDDF810B0102506E0881C0AF1080A1A
S214403B601946103C102C11DD4B1C1032072B1192BD
S214403B70CAF80060CAF804501093EEDD42BB103C11
S214403B80102C4FF001001146CA46EDDC22440728AF
S214403B901192CAF80060CAF80440109051DD002A1D
S214403BA040F09B81039B089A01998A42ACBF9B18C0
S214403BB05B1803934EE00FAA51463846FFF78EFB3C
S214403BC0002840F03F811099119A481CCE467FE766
S214403BD00FAA59463846FFF781FB60B91099119AEB
S214403BE0481CCA46BDE7119BDDF810B0002B40F0DC
S214403BF0D48100231093DBF8643013F0010FBBF838
S214403C000C3002D19A0540F1DE805B063FF5B2AC3F
S214403C1003982DB0BDE8F08F002A40F00681059A43
S214403C201D9201231192CDF870B01093CA460AF146
S214403C30080A029B590704D5089B01995C1A002C78
S214403C4081DC039B089901988142ACBF5B181B1826
S214403C50039372BB00231093CA46FFF7BCBB0FAA60
S214403C6004992046FFF73AFB50BB1099119A01F190
S214403C70010ECC4648E5002A40F040819DF83710BA
S214403C80002900F01B8101220DF1370110461D92DC
S214403C901C91CA4601460AF1080A013007E5029B14
S214403CA0012A00F09880022A0DD1029300260027B0
S214403CB0B0E50FAA04990698FFF710FB0028C9D074
S214403CC0DDF810B097E7029300260027494600E04B
S214403CD05946F20842EA4772F80806F007030746D4
S214403CE01646303356EA070201F8013C01F1FF3B25
S214403CF0EED1029AD6077FF59DAD302B3FF49AADB4
S214403D00023930230BF8013CA9EB010305938B469F
S214403D1076E4039B089A8A42ACBF9B185B180393D1
S214403D2098E702224DE4002F08BF0A2E52D3CB4616
S214403D30304639460A22002301F036FF30320BF86F
S214403D40012D3046394600230A2201F02DFF064653
S214403D500F4656EA0703EBD16CE50594CB464FE495
S214403D600FAA04990698FFF7B9FA0028A8D1119A25
S214403D70CA465EE70FAA04990698FFF7AFFA0028EE
S214403D809ED1CA46FFF7C0BB7C5F40006C5F4000D8
S214403D900431166807910122002712E4079801466D
S214403DA004310668079100270BE40E68043107913A
S214403DB0002791E507990E680A46F71704320792DE
S214403DC0304639460FE5DBF8580000F07FFEBBF87A
S214403DD00C301AE7029B02930DF1B00B30360123EC
S214403DE00BF8416D05930BE40FAA04990698FFF76C
S214403DF075FA00287FF464AF1099119A481CCA4699
S214403E0051E60FAA04990698FFF768FA00287FF44F
S214403E1057AF1099119A481CCA4648E4002A40F009
S214403E20918001201146CA4641E60FAA0499069899
S214403E30FFF754FA00287FF443AF1098119A0130E8
S214403E40CA4667E6D346D6E6079E073626F00702FA
S214403E5002F10801D2E9006707910122FFF7B1BBE2
S214403E60079E073626F00706D6E9000106F1080247
S214403E70079206460F46B6E4079E073626F0070228
S214403E8002F10801D2E9006707910022FFF799BBCB
S214403E90079E073626F0070101F108000790D1E992
S214403EA0006719E5CB46FFF7ABBB2D25764267EB9F
S214403EB047078DF837500122FFF788BB099BB3B9F7
S214403EC011460120CA46F2E5DBF8580000F0FEFD38
S214403ED04FF0FF330393FFF750BB0FAA04990698A1
S214403EE0FFF7FCF900287FF4EBAE119AA9E60EAB7B
S214403EF002221C931D920120CA46D0E50FAA0499BF
S214403F000698FFF7EBF900287FF4DAAE1099119A7D
S214403F10481CCA46A4E5079A03991368CD17084675
S214403F20043229460792C3E90001FFF754BA5846BF
S214403F3007960293FFF764F9002405909DF83750E2
S214403F40FFF75EBB0FAA04990698FFF7C7F900284B
S214403F507FF4B6AE1099119A481CCA46A7E5109948
S214403F60119A204E0131FFF790BB062C28BF06243D
S214403F70059407960194DFF870B0D5E41098194E72
S214403F80013003E605949DF83750079602930446A1
S214403F90FFF736BB8646FFF7CEBB06980FAA5946B4
S214403FA0FFF79CF900283FF424AE24E6079998F8DA
S214403FB001200C68043144EAE474B8460791FFF7E0
S214403FC03FBA8DF837503CE48DF8375021E58DF8F0
S214403FD03750FFF7F4BB8DF8375091E48DF83750E3
S214403FE069E400BF6C5F4000645F40002DE9F0412B
S214403FF00C46ADF58D6D8989666EE589199621F07A
S21440400002010646E069ADF80C1017464FF4806191
S214404010626AADF80E5098461AAD0023079016A86F
S21440402009920693009504950291059100F048FD8B
S21440403043463A4669463046FFF790F9051E07DB89
S2144040403046694600F028F9002818BF4FF0FF3583
S214404050BDF80C305B0603D5A38943F04003A3812B
S214404060169800F02FFD28460DF58D6DBDE8F081C1
S21440407038B5304B1B6805460C4613B19A6B002A80
S21440408038D0B4F90C2093B218070CD52069A8B1E3
S21440409013F001021ED0636900225B42A361A26056
S2144040A0F0B1002038BDD9063CD5580726D4206943
S2144040B042F00803A3819BB20028E9D103F42072A2
S2144040C0B2F5007FE4D02846214600F02FFDA389B4
S2144040D02069DDE7990758BF6269A2600028E0D1F1
S2144040E0B4F90C301A06DDD543F04003A3814FF0F7
S2144040F0FF3038BD184600F027F9C2E7216B51B1B2
S21440410004F14003994204D0284600F043FAB4F93B
S2144041100C200023236300232069636022F02402DE
S2144041202060C5E742F0400209232B604FF0FF3085
S214404130A28138BD0C004020024B13B1024800F06B
S21440414005B8704700000000B94340000023014610
S2144041501A46184601F000BCB1F90C309AB22DE967
S214404160F0410D46110780463AD46A6843F400632E
S214404170002AAB816FDDAC6A002C49D000229BB28E
S214404180D8F80060C8F8002013F4805267D02A6D33
S2144041905F0705D569682B6B521A0BB1EB6BD21AC9
S2144041A00023E9694046A047441C3CD0B5F90C3092
S2144041B02A692A6023F400630022AB81DB046A602C
S2144041C047D4296BC8F8006011B305F14003994203
S2144041D002D0404600F0DEF900202863BDE8F081BA
S2144041E02E69AEB12C682E6091070CBF6B69002318
S2144041F0A41BAB600AE0234632466F6AE969404634
S214404200B8470028A4EB0004064404DD002CF2DC8A
S2144042100020BDE8F081AB8943F04003AB814FF00E
S214404220FF30BDE8F081D8F800401D2CF3D8194B7C
S214404230E340DB4313F00103EDD1B5F90C206B608E
S21440424022F400632969AB81DA042960B9D5002CD1
S214404250B7D12865B5E7EA6B002A8CDCD8E701239E
S214404260E9694046A047431C024602D0AB89AC6A87
S2144042708EE7D8F80030002BF8D01D2B01D0162B37
S21440428002D1C8F80060C3E7AB8943F04003AB8176
S214404290BDE8F0810100402038B50D46044608B11F
S2144042A0836BBBB1B5F90C0088B16B6EDB0701D4EC
S2144042B0810517D520462946FFF74EFF6B6EDA0775
S2144042C0044602D4AB899B0507D5204638BD044634
S2144042D0204638BD00F038F8E4E7A86D00F0F6FB5D
S2144042E0204638BDA86D00F0EFFBE3E7014900F03B
S2144042F0AFBB00BF415A400010B500230446818141
S214404300C2810360436083604366036143618361A7
S214404310194608225C30FEF7EFFD07480749084A71
S214404320084B2062E4616162A262E36204F15800D5
S214404330BDE8104000F0C4BB85574000A957400078
S214404340E55740000558400010B50446124800F0B6
S214404350BBFBA26BD2B904F53B731048C4F8E832F5
S2144043600321C4F8E022E063C4F8E4126068042144
S214404370FFF7C2FF01220921A068FFF7BDFF022216
S2144043801221E068FFF7B8FF0123A3630248BDE8A7
S214404390104000F09BBB00BF340B4020ED42400075
S2144043A0014800F091BB00BF480B4020014800F098
S2144043B08DBB00BF480B402038B50A4C0A4D641BE5
S2144043C0A4100AD004F18043013B05EB8305013C71
S2144043D055F804399847002CF9D1BDE8384001F02B
S2144043E069BE00BFC4604000C06040002DE9F04791
S2144043F082B080468946144600F054FB012836D0E9
S2144044004A4604F15C0301A9404601F057FA421CB3
S214404410064625D0A8B39DF804E000250DF1040A11
S21440442009E023685A1C226083F800E00135B54253
S21440443027D215F80AE0A368013B002BA360F0DA08
S214404440A769BB4271462246404602DBBEF10A0FD0
S214404450E7D101F0DBF9431CE8D102B0BDE8F087B4
S214404460A38943F04003A38102B0BDE8F08709F179
S214404470FF33FE2BC4D85FFA89FE06468DF804E06B
S214404480CBE7484602B0BDE8F08700BF30B5536E74
S21440449013F0010FB2F90C30144683B005469AB2B9
S2144044A001D190051CD5900406D4626E43F40053A7
S2144044B042F40052A381626628462246FFF796FFE2
S2144044C0636EDA07054602D4A3899B0502D52846C3
S2144044D003B030BDA06D00F0F9FA284603B030BDF9
S2144044E0A06D019100F0F0FAB4F90C3001999AB23F
S2144044F0D9E700BFF8B5244F0C46064600F07EFFCD
S214404500BB685D68C4F57E610F3125F0030529441C
S21440451021F47F6121F00F01A1F58054B4F5805F4E
S21440452007DB0021304601F01BF9BB682B4498425C
S21440453004D0304600F068FF0020F8BD61423046A7
S21440454001F00EF901300DD0104BBA6819682D1BDA
S21440455045F001053046091B5560196000F054FFD0
S2144045600120F8BD0021304601F0FAF8BA68831AF7
S2144045700F2BDEDD064C0549246843F00103001B83
S21440458053600860D5E700BFA8054020600A402079
S214404590B0094020002944D02DE9F0410D46804620
S2144045A000F02CFF55F8047C694927F00103A5F17B
S2144045B00804E2188E685068B24220F003005ED0CD
S2144045C0FE0750600BD455F8087CE41B01F1080E3A
S2144045D0A56875453B446DD0E768EF60BD6015182B
S2144045E06D68ED073ED543F001026260E350B3F5D7
S2144045F0007F17D2DB08581C9A104D6851F830706F
S214404600A7600123934001EBC0022B43083AE260C7
S2144046104B6041F83040FC604046BDE8F04100F059
S214404620F3BE70475A0A042A52D89A0902F139074B
S214404630FF0002F13805C819CA59083890424FD0D1
S214404640516821F003018B4232D292689042F7D1F2
S214404650C368A060E3609C60C4604046BDE8F0412B
S21440466000F0D2BE95683B4FBD42034440D0D06870
S214404670E86043F0010285606260E350B7E7FF07F9
S214404680034407D455F8082CA41A1344A068E268DB
S214404690C2609060304A126843F001009342606006
S2144046A08C60B9D32D4B40461968FFF723FFB3E71C
S2144046B01046CDE711184968C90744D49168D268B6
S2144046C0CA60034443F0010091606060E350A3E792
S2144046D0142A16D802F15C07FF0002F15B05AAE730
S2144046E0AA1001234D6893402B434B600346B0E726
S2144046F043F001024C610C61E560A5606260E350E6
S2144047008AE7542A06D81A0B02F16F07FF0002F117
S2144047106E0590E7B2F5AA7F06D8DA0B02F1780765
S214404720FF0002F1770586E740F25450824206D8F1
S2144047309A0C02F17D07FF0002F17C057BE74FF4FF
S2144047407E777E2577E743F001016160136063E77B
S214404750A8054020B0054020B4094020900A4020DB
S2144047609368002B73D02DE9F04F8B8983B00C46AD
S21440477019070090164626D5226922B313F0020088
S21440478035682CD04FF00009B04FC846B246B84501
S21440479043464A4628BF3B460098B8F1000F50D0E3
S2144047A0E169666AB047002858DDDAF808301B1A17
S2144047B08144A8EB0008CAF80830002BE7D1002057
S2144047C003B0BDE8F08F21460098FFF751FC002863
S2144047D040F03381A389356813F00200D2D113F03C
S2144047E0010945D14F46019637B39A05D4F808805B
S2144047F040F183804745C346C0F0AB8013F4906FCA
S21440480040F0AC802068BA465A46494600F092FDD1
S214404810A2682368A2EB08025B44A2602360019A68
S2144048209368A3EB0A03D144A7EB0A079360002BD7
S214404830C5D0A389002FD8D1D5F800906F68083529
S214404840D2E7D5F80090D5F8048008359FE70020D9
S214404850704721460098FFF71FFD70B3B4F90C303F
S21440486043F040034FF0FF30A38103B0BDE8F08F24
S214404870814633464E46A8469A464D464EB380B38A
S214404880206823696269B145CB4628BFB346984243
S2144048905F4604D9A36813449B4500F3A68093451E
S2144048A04BDB1346676AE16900982A46B847071EFD
S2144048B0D4DDB9EB0709CCD00120DAF80830DB1B91
S2144048C03D44F61BCAF80830002B3FF478AF002E64
S2144048D0D5D108F1080313E9600098460833002E46
S2144048E0F9D032460A21284600F03AFC002800F06B
S2144048F0A1800130A0EB0509C2E7206823699842F1
S21440490002D863699F425DD2B84528BFB846424642
S214404910494600F00FFDA3682268A3EB0803424413
S214404920A36022600BB1C24679E721460098FFF7A4
S214404930B3FC002892D1C24671E75A46294600F099
S214404940F9FCA2682368A2EB0B025B44A2602360DA
S214404950AFE72068B846BA46BB4655E76269206866
S214404960216902EB4208A0EB010A08EBD8780AF16D
S21440497001004FEA680838444045424684BF8046B6
S21440498042465B0544D51146009800F021F983461F
S214404990002855D05246216900F032FCA38923F402
S2144049A0906343F08003A3810BEB0A00A8EB0A0355
S2144049B0C4F810B0C4F814802060A360B846BA4665
S2144049C0BB4621E76FF00041B94228BF39464A4608
S2144049D091FBF3F10098666A03FB01F3E169B04787
S2144049E0B0F1000A3FF71BAF38E71A462946019355
S2144049F000F0A0FC2268019B00981A4422602146E1
S214404A00FFF74AFC019B00287FF428AF1F4650E77B
S214404A10009800F0FFFC83460028C5D1009D216920
S214404A202846FFF7B7FDB4F90C300C2223F080037C
S214404A302A6015E706F1010922E74FF0FF30BFE68E
S214404A40009A0C231360B4F90C3009E700FCFF7F92
S214404A502DE9F84310F538771FD0884606464FF0C4
S214404A6000097D68BC68013D11D4A389012B05F17E
S214404A70FF3508D9B4F90E3001332146304602D00E
S214404A80C04749EA00096B1C04F16804EDD13F6851
S214404A90002FE6D14846BDE8F883B9464846BDE80B
S214404AA0F88300BF044B054A1B685B6B002B08BFAE
S214404AB0134693F8280170470C0040203C044020E1
S214404AC0704700BF704700BF704700BF704700BFC9
S214404AD070B50C46B1F90E10002990B015461E462A
S214404AE014DB01AA01F00EF800280FDB029A02F44C
S214404AF07042A2F50052B2FA82F252094FF4806335
S214404B004FF4006032602B6010B070BDA289002365
S214404B1012F08000336004D0402218462A6010B05D
S214404B2070BD4FF480632B6010B070BD8A899207C9
S214404B300B4606D501F1430201211A601A615961FC
S214404B407047F0B583B001AB6A460C460646FFF7A1
S214404B50BFFF00990546304600F03AF8B4F90C30ED
S214404B60D8B1019A154F0099F76343F08003A381AB
S214404B702060206161611AB92B43A38103B0F0BD68
S214404B803046B4F90E1000F0D1FFA0B1A38923F04F
S214404B90030343F001031BB2EEE79A05EED423F07D
S214404BA0030304F1430243F002030121A381226080
S214404BB022616161E2E7B4F90C30DDE7ED42400086
S214404BC0024B0146186800F003B800BF0C004020B6
S214404BD02DE9F04F01F10B06162E83B0054640F244
S214404BE09E8036F0070600F1BD80B14200F2BA80E2
S214404BF000F004FCB6F5FC7FC0F09382730A00F028
S214404C00B880042B00F27981B30903F1390003F12F
S214404C10380EC300BF4F3B44A3F108015C68A14275
S214404C2006D10CE0002A80F2AA80E468A14206D0B1
S214404C30636823F003039A1B0F2AF3DD70463C6932
S214404C40DFF8E4E2744500F0AB81636823F00303C9
S214404C509A1B0F2A00F39081002AC7F814E0C7F881
S214404C6010E080F29D80B3F5007F80F06181DB0824
S214404C7003F1010C99107A6857F83C80C4F8088014
S214404C8001238B4007EBCC0113430839E1607B607E
S214404C9047F83C40C8F80C408210012494409C429F
S214404CA000F28B801C4206D120F0030064001C42B8
S214404CB000F10400FAD007EBC009CC468046DCF889
S214404CC00C309C4507D16DE1002A80F27B81DB6881
S214404CD09C4500F06781596821F003018A1B0F2A22
S214404CE0F2DDD3F80CC0D3F8088000939C19284610
S214404CF046F0010642F001055E60C8F80CC0CCF8EC
S214404D0008807C613C61C4F80CE0C4F808E065604B
S214404D105A5000F079FB009B03F108041EE010296E
S214404D2020D800F06BFB102618230220794F3B4416
S214404D30A3F108025C68944200F03D816368E16834
S214404D40A66823F00303234428465A68F16042F0DD
S214404D5001028E605A6000F057FB0834204603B0CC
S214404D60BDE8F08F00240C2320462B6003B0BDE83E
S214404D70F08F40204FF400734FF03F0E4AE7234435
S214404D80E1685A68A66842F00102F16028468E60E3
S214404D905A6000F039FB0834204603B0BDE8F08F77
S214404DA0234428465A6842F001025A6000F02CFB21
S214404DB00834204603B0BDE8F08FBC68636823F033
S214404DC00308B04504D3A8EB06030F2B00F38580F9
S214404DD0DFF85891504BD9F800201B680132334415
S214404DE004EB080A00F0558103F580530F3323F493
S214404DF07F6B2BF00F0B5946284600F0B1FC411C48
S214404E00024600F0FC80824500F2F780434B19686A
S214404E105944196000F04D81D9F8000001301BBF9D
S214404E20A2EB0A0A5144C9F80020196012F00701A3
S214404E3000F01581C1F10800C1F5805102440831E7
S214404E4002EB0B09C9F30B09A1EB090949462846B1
S214404E500193009200F084FC431C9DE80C0000F097
S214404E604381801A484440F001001968BA604944BA
S214404E70BC425060196017D0B8F10F0F40F2FB806B
S214404E806068A8F10C0222F0070204EB020E00F064
S214404E9001004FF0050C10430F2A6060CEF804C0A6
S214404EA0CEF808C000F217811D4BBC681A689142C4
S214404EB088BF19601B4B1A689142626888BF1960A8
S214404EC022F003029642A2EB060301D80F2B04DC25
S214404ED0284600F099FA002440E7A21943F001035F
S214404EE046F0010666602846BA60536000F08CFAC9
S214404EF00834204603B0BDE8F08F142B71D9542BEC
S214404F0000F2A380330B03F16F0003F16E0EC30073
S214404F1080E600BFA8054020900A4020600A402056
S214404F20880A40208C0A4020B0054020B009402026
S214404F305A0A042A5BD9142A00F2AE8002F15C01B8
S214404F40C9005B3207EB010C7958ACF1080C8C4574
S214404F5000F088804A6822F00302934273D2896840
S214404F608C45F7D1DCF80C207B68E260C4F808C0BA
S214404F709460CCF80C408FE6A11946F0010C42F044
S214404F800106C4F804C0284679613961C1F80CE0CE
S214404F90C1F808E04E60E25000F036FA0834DDE62C
S214404FA07B6879E608F1010818F0030F0CF1080C4D
S214404FB07FF485AE2DE0DC68A34208BF02303FF4A4
S214404FC03EAEBBE619441C464A68DB6854F8086F98
S214404FD042F001024A602846F3609E6000F014FAF0
S214404FE0BCE603F15C0003F15B0EC30012E69A09CF
S214404FF002F13901C9003832A4E7BC4254D0BC683B
S214405000626822F003025DE759F80839994540F096
S214405010868010F0030F00F1FF30F5D17B6823EA5D
S21440502004037B6064009C423FF6C7AE002C3FF40E
S214405030C4AE1C4240467FF43EAE64001C4200F1C3
S2144050400400FAD037E68C468CE7B3F5AA7F15D82D
S214405050F30B03F1780003F1770EC300DAE54FF463
S2144050608051EDE67B689210012101FA02F213436B
S2144050707B60624679E70123536029E740F2545249
S214405080934222D8B30C03F17D0003F17C0EC3009B
S214405090C0E503F1100BAEE6542A29D81A0B02F1EC
S2144050A06F01C9006E324DE7204B196859441960AC
S2144050B0B2E6CAF30B0000287FF4AEAE08EB0B0353
S2144050C0BA6843F001035360EEE67F204FF47E73E8
S2144050D04FF07E0E9EE504F1080128460093FFF748
S2144050E059FA009B1968DFE601204FF00009BCE63C
S2144050F0B2F5AA7F05D8DA0B02F17801C9007732FB
S21440510020E740F254518A4205D89A0C02F17D01BC
S214405110C9007C3216E74FF47E717E2212E77B6828
S21440512080E7F00806F1080300E600BF600A40206A
S21440513082B049B15AB16BB113780B601278101C2B
S21440514018BF012002B0704701A9002AF3D11046CB
S21440515002B070476FF00100F4E700BF00000000A7
S21440516001F0FF01102A2BDB10F0070F08D010F8D3
S214405170013B013A8B422DD010F0070F42B3F6D1D7
S214405180F0B441EA012141EA014122F007047FF0F0
S21440519000070023F0E80256083C85EA010586EA47
S2144051A0010685FA47F5A3FA87F586FA47F6A5FA83
S2144051B087F68EB9EED1F0BC01F0FF0102F007028F
S2144051C032B110F8013B013A83EA010313B1F8D13A
S2144051D00020704701387047002D06BF354603381B
S2144051E0073815F0010F07D1013015F4807F02BF54
S2144051F0013015F4C03F0130F0BC0138704700BFA5
S214405200844641EA000313F003036DD1403A41D38C
S21440521051F8043B40F8043B51F8043B40F8043B4B
S21440522051F8043B40F8043B51F8043B40F8043B3B
S21440523051F8043B40F8043B51F8043B40F8043B2B
S21440524051F8043B40F8043B51F8043B40F8043B1B
S21440525051F8043B40F8043B51F8043B40F8043B0B
S21440526051F8043B40F8043B51F8043B40F8043BFB
S21440527051F8043B40F8043B51F8043B40F8043BEB
S21440528051F8043B40F8043B51F8043B40F8043BDB
S214405290403ABDD2303211D351F8043B40F8043B7B
S2144052A051F8043B40F8043B51F8043B40F8043BBB
S2144052B051F8043B40F8043B103AEDD20C3205D38B
S2144052C051F8043B40F8043B043AF9D2043208D083
S2144052D0D2071CBF11F8013B00F8013B01D30B88F5
S2144052E003806046704700BF082A13D38B078DD0D3
S2144052F010F003038AD0C3F10403D21ADB071CBFA5
S21440530011F8013B00F8013B80D331F8023B20F80E
S214405310023B7BE7043AD9D3013A11F8013B00F847
S214405320013BF9D20B7803704B7843708B788370CF
S214405330604670478842F0B50DD98B1898420AD21D
S2144053408418002A51D0224613F8014D02F8014D28
S2144053509942F9D1F0BD0F2A48D941EA00039B078C
S21440536046D100F1100401F11003154653F8106CB5
S21440537044F8106C53F80C6C44F80C6C53F8086CFA
S21440538044F8086C103D53F8046C44F8046C0F2D38
S21440539003F1100304F11004E8D8A2F1100323F03F
S2144053A00F0302F00F0E1033BEF1030F19440344EF
S2144053B021D91E1F0D467446043C55F8047B46F81A
S2144053C0047F032CF8D8AEF1040424F0030404341C
S2144053D02144234402F0030262B1013B0A4411F81F
S2144053E0014B03F8014F8A42F9D1F0BD0346F3E77B
S2144053F00346F2E7F0BD7246EEE700BF0148FFF70E
S21440540063BB00BF380B40200148FFF75FBB00BFBF
S214405410380B4020002900F095802DE9F04F0D46CE
S214405420164683B0804606F10B07FFF7E7FF55F8B0
S21440543004EC162F2EF00304A5F108093CD81022E0
S2144054401746BE423DD8944243DAC44B996809EBAE
S2144054500400884200F0B480436823F00101014410
S2144054604968C9074CD51EF0010F00F09B803146B5
S2144054704046FFF7ADFB064600283AD055F8043CB8
S21440548023F001034B44A0F108029A4200F0218128
S214405490221F242A00F20781132A00F2DB800346EB
S2144054A02A46116819605168596092689A60294680
S2144054B04046FFF76FF81CE027F00707002F3A46F4
S2144054C0BFDA00260C233046C8F8003003B0BDE8EB
S2144054D0F08F2E46E31B0F2B1ED8D9F8043003F06E
S2144054E0010323434C44C9F80430636843F0010386
S2144054F063604046FFF788FF304603B0BDE8F08F54
S21440550023F00303E11891421FDBC36882682E46EE
S214405510D3600C469A60DDE7D9F8042009EB070112
S21440552002F001024C4443F001031743C9F80470EB
S2144055304B60636843F00103083163604046FFF701
S21440554029F8D6E71146FFF743BB1EF0010F8ED170
S21440555055F8081CA9EB010ADAF8041021F00301FB
S2144055600B442344934225DBC26881685646CA6092
S2144055709160DAF80C1056F8080F221F242AC160F2
S214405580886000F29480132A6FD92968CAF80810F8
S2144055906968CAF80C101B2A00F2A28008350AF186
S2144055A0100263E055F8083CA9EB030ADAF8041049
S2144055B021F0030163189342FFF659AF5646D8E7E9
S2144055C0416821F0030BA34407F11000834556DAE7
S2144055D01EF0010F7FF44BAF55F8081CA9EB010AEB
S2144055E0DAF8041021F003018B445845E2DC5646B5
S2144055F0DAF80C1056F8080F221F242AC16088607B
S21440560000F28F80132A40F28A802968CAF8081070
S2144056106968CAF80C101B2A00F28A8008350AF11D
S21440562010022968116069685160A96891600AEBA8
S2144056300701ABEB070242F0010299604A60DAF8D4
S214405640043003F001031F434046CAF80470FFF7D6
S214405650DBFE51E72B6803606B6843601B2A2DD83E
S21440566000F1080305F108021BE73246296811607D
S21440567069685160A96891601C46D1462AE709EBE3
S2144056800701ABEB070B4BF0010299604A6055F8F7
S214405690043C03F001031F43404645F8047CFFF7F3
S2144056A0B3FE2E4628E72946FFF744FEFFE6294686
S2144056B030461C46D146FFF73DFE0BE7AB6883609D
S2144056C0EB68C360242A17D000F1100305F11002DE
S2144056D0E7E650F8043C23F003031C442E46F9E664
S2144056E0A968CAF81010E968CAF81410242A0CD021
S2144056F010350AF11802B9E72B6903616B694361FB
S21440570005F1180200F11803CBE62A69CAF81820FA
S2144057106A69CAF81C2018350AF12002A6E7324604
S2144057207FE7294630460193FFF704FE019B7EE75C
S214405730A968CAF81010E968CAF81410242A03D0D9
S21440574010350AF118026CE72A69CAF818206A6907
S214405750CAF81C2018350AF1200262E7A805402046
S21440576038B5074C0023054608462360FDF728FB5E
S214405770431C00D038BD2368002BFBD02B6038BDBF
S2144057804C0B402010B50C46B1F90E1000F0F6F95F
S214405790002803DB236D0344236510BDA38923F44F
S2144057A08053A38110BD00BF2DE9F0411646B1F9E4
S2144057B00C201F46D3050C46054607D5002202237B
S2144057C0B1F90E1000F0C4F9B4F90C20B4F90E107B
S2144057D022F48052A2813B4632462846BDE8F0413C
S2144057E000F0A4B810B50C46B1F90E1000F0B0F9B0
S2144057F0A389421C0EBF23F4805343F48053206594
S214405800A38110BDB1F90E1000F008B9F8B50D46E9
S2144058101446064610B1836B002B4BD0B4F90C20CF
S214405820A369A36091B2080739D52369002B36D007
S214405830EDB289042F4615D522686169D31A8B428A
S2144058401CDA0133A168501C0139A1602060157034
S21440585062699A421AD0A389DB0701D50A2D15D072
S2144058603846F8BD616E42F4005221F40051A281E0
S214405870226861666169D31A8B42E2DB2146304674
S214405880FEF70AFD40B922680123DBE72146304691
S214405890FEF702FD0028E3D04FF0FF37E0E7214651
S2144058A03046FEF7E5FB0028F6D1B4F90C20236914
S2144058B091B2BDE7FEF748FDB0E700BFF0B506463B
S2144058C085B01F4689B1104C104D2468646B002C7F
